OCI runtime exec failed: exec failed: unable to start container process: exec: "sudo": executable file not found in $PATH: unknown
OCI runtime exec failed: exec failed: unable to start container process: exec: "sudo": executable file not found in $PATH: unknown
OCI runtime exec failed: exec failed: unable to start container process: exec: "sudo": executable file not found in $PATH: unknown
OCI runtime exec failed: exec failed: unable to start container process: exec: "sudo": executable file not found in $PATH: unknown
OCI runtime exec failed: exec failed: unable to start container process: exec: "sudo": executable file not found in $PATH: unknown
OCI runtime exec failed: exec failed: unable to start container process: exec: "sudo": executable file not found in $PATH: unknown
OCI runtime exec failed: exec failed: unable to start container process: exec: "sudo": executable file not found in $PATH: unknown
OCI runtime exec failed: exec failed: unable to start container process: exec: "sudo": executable file not found in $PATH: unknown
OCI runtime exec failed: exec failed: unable to start container process: exec: "sudo": executable file not found in $PATH: unknown
2023-11-09 14:51:10.569400 02:42:ac:11:00:03 > 02:42:ac:11:00:05, ethertype IPv4 (0x0800), length 98: 172.17.0.3 > 172.17.0.5: ICMP echo request, id 1, seq 127, length 64
	0x0000:  4500 0054 99e0 4000 4001 489e ac11 0003  E..T..@.@.H.....
	0x0010:  ac11 0005 0800 f3a5 0001 007f def1 4c65  ..............Le
	0x0020:  0000 0000 11b0 0800 0000 0000 1011 1213  ................
	0x0030:  1415 1617 1819 1a1b 1c1d 1e1f 2021 2223  .............!"#
	0x0040:  2425 2627 2829 2a2b 2c2d 2e2f 3031 3233  $%&'()*+,-./0123
	0x0050:  3435 3637                                4567
2023-11-09 14:51:10.569415 02:42:ac:11:00:05 > 02:42:ac:11:00:03, ethertype IPv4 (0x0800), length 98: 172.17.0.5 > 172.17.0.3: ICMP echo reply, id 1, seq 127, length 64
	0x0000:  4500 0054 235a 0000 4001 ff24 ac11 0005  E..T#Z..@..$....
	0x0010:  ac11 0003 0000 fba5 0001 007f def1 4c65  ..............Le
	0x0020:  0000 0000 11b0 0800 0000 0000 1011 1213  ................
	0x0030:  1415 1617 1819 1a1b 1c1d 1e1f 2021 2223  .............!"#
	0x0040:  2425 2627 2829 2a2b 2c2d 2e2f 3031 3233  $%&'()*+,-./0123
	0x0050:  3435 3637                                4567
2023-11-09 14:51:11.593568 02:42:ac:11:00:03 > 02:42:ac:11:00:05, ethertype IPv4 (0x0800), length 98: 172.17.0.3 > 172.17.0.5: ICMP echo request, id 1, seq 128, length 64
	0x0000:  4500 0054 9ab3 4000 4001 47cb ac11 0003  E..T..@.@.G.....
	0x0010:  ac11 0005 0800 9946 0001 0080 dff1 4c65  .......F......Le
	0x0020:  0000 0000 6a0e 0900 0000 0000 1011 1213  ....j...........
	0x0030:  1415 1617 1819 1a1b 1c1d 1e1f 2021 2223  .............!"#
	0x0040:  2425 2627 2829 2a2b 2c2d 2e2f 3031 3233  $%&'()*+,-./0123
	0x0050:  3435 3637                                4567
2023-11-09 14:51:11.593587 02:42:ac:11:00:05 > 02:42:ac:11:00:03, ethertype IPv4 (0x0800), length 98: 172.17.0.5 > 172.17.0.3: ICMP echo reply, id 1, seq 128, length 64
	0x0000:  4500 0054 239a 0000 4001 fee4 ac11 0005  E..T#...@.......
	0x0010:  ac11 0003 0000 a146 0001 0080 dff1 4c65  .......F......Le
	0x0020:  0000 0000 6a0e 0900 0000 0000 1011 1213  ....j...........
	0x0030:  1415 1617 1819 1a1b 1c1d 1e1f 2021 2223  .............!"#
	0x0040:  2425 2627 2829 2a2b 2c2d 2e2f 3031 3233  $%&'()*+,-./0123
	0x0050:  3435 3637                                4567
2023-11-09 14:51:12.617449 02:42:ac:11:00:03 > 02:42:ac:11:00:05, ethertype IPv4 (0x0800), length 98: 172.17.0.3 > 172.17.0.5: ICMP echo request, id 1, seq 129, length 64
	0x0000:  4500 0054 9b07 4000 4001 4777 ac11 0003  E..T..@.@.Gw....
	0x0010:  ac11 0005 0800 40e8 0001 0081 e0f1 4c65  ......@.......Le
	0x0020:  0000 0000 c16b 0900 0000 0000 1011 1213  .....k..........
	0x0030:  1415 1617 1819 1a1b 1c1d 1e1f 2021 2223  .............!"#
	0x0040:  2425 2627 2829 2a2b 2c2d 2e2f 3031 3233  $%&'()*+,-./0123
	0x0050:  3435 3637                                4567
2023-11-09 14:51:12.617463 02:42:ac:11:00:05 > 02:42:ac:11:00:03, ethertype IPv4 (0x0800), length 98: 172.17.0.5 > 172.17.0.3: ICMP echo reply, id 1, seq 129, length 64
	0x0000:  4500 0054 23a9 0000 4001 fed5 ac11 0005  E..T#...@.......
	0x0010:  ac11 0003 0000 48e8 0001 0081 e0f1 4c65  ......H.......Le
	0x0020:  0000 0000 c16b 0900 0000 0000 1011 1213  .....k..........
	0x0030:  1415 1617 1819 1a1b 1c1d 1e1f 2021 2223  .............!"#
	0x0040:  2425 2627 2829 2a2b 2c2d 2e2f 3031 3233  $%&'()*+,-./0123
	0x0050:  3435 3637                                4567
2023-11-09 14:51:13.641494 02:42:ac:11:00:03 > 02:42:ac:11:00:05, ethertype IPv4 (0x0800), length 98: 172.17.0.3 > 172.17.0.5: ICMP echo request, id 1, seq 130, length 64
	0x0000:  4500 0054 9b7b 4000 4001 4703 ac11 0003  E..T.{@.@.G.....
	0x0010:  ac11 0005 0800 6689 0001 0082 e1f1 4c65  ......f.......Le
	0x0020:  0000 0000 9ac9 0900 0000 0000 1011 1213  ................
	0x0030:  1415 1617 1819 1a1b 1c1d 1e1f 2021 2223  .............!"#
	0x0040:  2425 2627 2829 2a2b 2c2d 2e2f 3031 3233  $%&'()*+,-./0123
	0x0050:  3435 3637                                4567
2023-11-09 14:51:13.641515 02:42:ac:11:00:05 > 02:42:ac:11:00:03, ethertype IPv4 (0x0800), length 98: 172.17.0.5 > 172.17.0.3: ICMP echo reply, id 1, seq 130, length 64
	0x0000:  4500 0054 2446 0000 4001 fe38 ac11 0005  E..T$F..@..8....
	0x0010:  ac11 0003 0000 6e89 0001 0082 e1f1 4c65  ......n.......Le
	0x0020:  0000 0000 9ac9 0900 0000 0000 1011 1213  ................
	0x0030:  1415 1617 1819 1a1b 1c1d 1e1f 2021 2223  .............!"#
	0x0040:  2425 2627 2829 2a2b 2c2d 2e2f 3031 3233  $%&'()*+,-./0123
	0x0050:  3435 3637                                4567
2023-11-09 14:51:14.665472 02:42:ac:11:00:03 > 02:42:ac:11:00:05, ethertype IPv4 (0x0800), length 98: 172.17.0.3 > 172.17.0.5: ICMP echo request, id 1, seq 131, length 64
	0x0000:  4500 0054 9bba 4000 4001 46c4 ac11 0003  E..T..@.@.F.....
	0x0010:  ac11 0005 0800 ac2a 0001 0083 e2f1 4c65  .......*......Le
	0x0020:  0000 0000 5327 0a00 0000 0000 1011 1213  ....S'..........
	0x0030:  1415 1617 1819 1a1b 1c1d 1e1f 2021 2223  .............!"#
	0x0040:  2425 2627 2829 2a2b 2c2d 2e2f 3031 3233  $%&'()*+,-./0123
	0x0050:  3435 3637                                4567
2023-11-09 14:51:14.665488 02:42:ac:11:00:05 > 02:42:ac:11:00:03, ethertype IPv4 (0x0800), length 98: 172.17.0.5 > 172.17.0.3: ICMP echo reply, id 1, seq 131, length 64
	0x0000:  4500 0054 24b0 0000 4001 fdce ac11 0005  E..T$...@.......
	0x0010:  ac11 0003 0000 b42a 0001 0083 e2f1 4c65  .......*......Le
	0x0020:  0000 0000 5327 0a00 0000 0000 1011 1213  ....S'..........
	0x0030:  1415 1617 1819 1a1b 1c1d 1e1f 2021 2223  .............!"#
	0x0040:  2425 2627 2829 2a2b 2c2d 2e2f 3031 3233  $%&'()*+,-./0123
	0x0050:  3435 3637                                4567
2023-11-09 14:51:15.689488 02:42:ac:11:00:03 > 02:42:ac:11:00:05, ethertype IPv4 (0x0800), length 98: 172.17.0.3 > 172.17.0.5: ICMP echo request, id 1, seq 132, length 64
	0x0000:  4500 0054 9cad 4000 4001 45d1 ac11 0003  E..T..@.@.E.....
	0x0010:  ac11 0005 0800 e1cb 0001 0084 e3f1 4c65  ..............Le
	0x0020:  0000 0000 1c85 0a00 0000 0000 1011 1213  ................
	0x0030:  1415 1617 1819 1a1b 1c1d 1e1f 2021 2223  .............!"#
	0x0040:  2425 2627 2829 2a2b 2c2d 2e2f 3031 3233  $%&'()*+,-./0123
	0x0050:  3435 3637                                4567
2023-11-09 14:51:15.689508 02:42:ac:11:00:05 > 02:42:ac:11:00:03, ethertype IPv4 (0x0800), length 98: 172.17.0.5 > 172.17.0.3: ICMP echo reply, id 1, seq 132, length 64
	0x0000:  4500 0054 255e 0000 4001 fd20 ac11 0005  E..T%^..@.......
	0x0010:  ac11 0003 0000 e9cb 0001 0084 e3f1 4c65  ..............Le
	0x0020:  0000 0000 1c85 0a00 0000 0000 1011 1213  ................
	0x0030:  1415 1617 1819 1a1b 1c1d 1e1f 2021 2223  .............!"#
	0x0040:  2425 2627 2829 2a2b 2c2d 2e2f 3031 3233  $%&'()*+,-./0123
	0x0050:  3435 3637                                4567
2023-11-09 14:51:16.713460 02:42:ac:11:00:03 > 02:42:ac:11:00:05, ethertype IPv4 (0x0800), length 98: 172.17.0.3 > 172.17.0.5: ICMP echo request, id 1, seq 133, length 64
	0x0000:  4500 0054 9d84 4000 4001 44fa ac11 0003  E..T..@.@.D.....
	0x0010:  ac11 0005 0800 346d 0001 0085 e4f1 4c65  ......4m......Le
	0x0020:  0000 0000 c8e2 0a00 0000 0000 1011 1213  ................
	0x0030:  1415 1617 1819 1a1b 1c1d 1e1f 2021 2223  .............!"#
	0x0040:  2425 2627 2829 2a2b 2c2d 2e2f 3031 3233  $%&'()*+,-./0123
	0x0050:  3435 3637                                4567
2023-11-09 14:51:16.713476 02:42:ac:11:00:05 > 02:42:ac:11:00:03, ethertype IPv4 (0x0800), length 98: 172.17.0.5 > 172.17.0.3: ICMP echo reply, id 1, seq 133, length 64
	0x0000:  4500 0054 25fb 0000 4001 fc83 ac11 0005  E..T%...@.......
	0x0010:  ac11 0003 0000 3c6d 0001 0085 e4f1 4c65  ......<m......Le
	0x0020:  0000 0000 c8e2 0a00 0000 0000 1011 1213  ................
	0x0030:  1415 1617 1819 1a1b 1c1d 1e1f 2021 2223  .............!"#
	0x0040:  2425 2627 2829 2a2b 2c2d 2e2f 3031 3233  $%&'()*+,-./0123
	0x0050:  3435 3637                                4567
2023-11-09 14:51:17.737534 02:42:ac:11:00:03 > 02:42:ac:11:00:05, ethertype IPv4 (0x0800), length 98: 172.17.0.3 > 172.17.0.5: ICMP echo request, id 1, seq 134, length 64
	0x0000:  4500 0054 9d8a 4000 4001 44f4 ac11 0003  E..T..@.@.D.....
	0x0010:  ac11 0005 0800 2c0e 0001 0086 e5f1 4c65  ......,.......Le
	0x0020:  0000 0000 cf40 0b00 0000 0000 1011 1213  .....@..........
	0x0030:  1415 1617 1819 1a1b 1c1d 1e1f 2021 2223  .............!"#
	0x0040:  2425 2627 2829 2a2b 2c2d 2e2f 3031 3233  $%&'()*+,-./0123
	0x0050:  3435 3637                                4567
2023-11-09 14:51:17.737551 02:42:ac:11:00:05 > 02:42:ac:11:00:03, ethertype IPv4 (0x0800), length 98: 172.17.0.5 > 172.17.0.3: ICMP echo reply, id 1, seq 134, length 64
	0x0000:  4500 0054 2662 0000 4001 fc1c ac11 0005  E..T&b..@.......
	0x0010:  ac11 0003 0000 340e 0001 0086 e5f1 4c65  ......4.......Le
	0x0020:  0000 0000 cf40 0b00 0000 0000 1011 1213  .....@..........
	0x0030:  1415 1617 1819 1a1b 1c1d 1e1f 2021 2223  .............!"#
	0x0040:  2425 2627 2829 2a2b 2c2d 2e2f 3031 3233  $%&'()*+,-./0123
	0x0050:  3435 3637                                4567
2023-11-09 14:51:18.761457 02:42:ac:11:00:03 > 02:42:ac:11:00:05, ethertype IPv4 (0x0800), length 98: 172.17.0.3 > 172.17.0.5: ICMP echo request, id 1, seq 135, length 64
	0x0000:  4500 0054 9e47 4000 4001 4437 ac11 0003  E..T.G@.@.D7....
	0x0010:  ac11 0005 0800 b4af 0001 0087 e6f1 4c65  ..............Le
	0x0020:  0000 0000 459e 0b00 0000 0000 1011 1213  ....E...........
	0x0030:  1415 1617 1819 1a1b 1c1d 1e1f 2021 2223  .............!"#
	0x0040:  2425 2627 2829 2a2b 2c2d 2e2f 3031 3233  $%&'()*+,-./0123
	0x0050:  3435 3637                                4567
2023-11-09 14:51:18.761473 02:42:ac:11:00:05 > 02:42:ac:11:00:03, ethertype IPv4 (0x0800), length 98: 172.17.0.5 > 172.17.0.3: ICMP echo reply, id 1, seq 135, length 64
	0x0000:  4500 0054 26e9 0000 4001 fb95 ac11 0005  E..T&...@.......
	0x0010:  ac11 0003 0000 bcaf 0001 0087 e6f1 4c65  ..............Le
	0x0020:  0000 0000 459e 0b00 0000 0000 1011 1213  ....E...........
	0x0030:  1415 1617 1819 1a1b 1c1d 1e1f 2021 2223  .............!"#
	0x0040:  2425 2627 2829 2a2b 2c2d 2e2f 3031 3233  $%&'()*+,-./0123
	0x0050:  3435 3637                                4567
2023-11-09 14:51:19.789414 02:42:ac:11:00:03 > 02:42:ac:11:00:05, ethertype IPv4 (0x0800), length 98: 172.17.0.3 > 172.17.0.5: ICMP echo request, id 1, seq 136, length 64
	0x0000:  4500 0054 9edf 4000 4001 439f ac11 0003  E..T..@.@.C.....
	0x0010:  ac11 0005 0800 8a41 0001 0088 e7f1 4c65  .......A......Le
	0x0020:  0000 0000 6e0b 0c00 0000 0000 1011 1213  ....n...........
	0x0030:  1415 1617 1819 1a1b 1c1d 1e1f 2021 2223  .............!"#
	0x0040:  2425 2627 2829 2a2b 2c2d 2e2f 3031 3233  $%&'()*+,-./0123
	0x0050:  3435 3637                                4567
2023-11-09 14:51:19.789429 02:42:ac:11:00:05 > 02:42:ac:11:00:03, ethertype IPv4 (0x0800), length 98: 172.17.0.5 > 172.17.0.3: ICMP echo reply, id 1, seq 136, length 64
	0x0000:  4500 0054 27bd 0000 4001 fac1 ac11 0005  E..T'...@.......
	0x0010:  ac11 0003 0000 9241 0001 0088 e7f1 4c65  .......A......Le
	0x0020:  0000 0000 6e0b 0c00 0000 0000 1011 1213  ....n...........
	0x0030:  1415 1617 1819 1a1b 1c1d 1e1f 2021 2223  .............!"#
	0x0040:  2425 2627 2829 2a2b 2c2d 2e2f 3031 3233  $%&'()*+,-./0123
	0x0050:  3435 3637                                4567
2023-11-09 14:51:20.809498 02:42:ac:11:00:03 > 02:42:ac:11:00:05, ethertype IPv4 (0x0800), length 98: 172.17.0.3 > 172.17.0.5: ICMP echo request, id 1, seq 137, length 64
	0x0000:  4500 0054 9fd5 4000 4001 42a9 ac11 0003  E..T..@.@.B.....
	0x0010:  ac11 0005 0800 0ef2 0001 0089 e8f1 4c65  ..............Le
	0x0020:  0000 0000 e859 0c00 0000 0000 1011 1213  .....Y..........
	0x0030:  1415 1617 1819 1a1b 1c1d 1e1f 2021 2223  .............!"#
	0x0040:  2425 2627 2829 2a2b 2c2d 2e2f 3031 3233  $%&'()*+,-./0123
	0x0050:  3435 3637                                4567
2023-11-09 14:51:20.809517 02:42:ac:11:00:05 > 02:42:ac:11:00:03, ethertype IPv4 (0x0800), length 98: 172.17.0.5 > 172.17.0.3: ICMP echo reply, id 1, seq 137, length 64
	0x0000:  4500 0054 2857 0000 4001 fa27 ac11 0005  E..T(W..@..'....
	0x0010:  ac11 0003 0000 16f2 0001 0089 e8f1 4c65  ..............Le
	0x0020:  0000 0000 e859 0c00 0000 0000 1011 1213  .....Y..........
	0x0030:  1415 1617 1819 1a1b 1c1d 1e1f 2021 2223  .............!"#
	0x0040:  2425 2627 2829 2a2b 2c2d 2e2f 3031 3233  $%&'()*+,-./0123
	0x0050:  3435 3637                                4567
2023-11-09 14:51:21.833424 02:42:ac:11:00:03 > 02:42:ac:11:00:05, ethertype IPv4 (0x0800), length 98: 172.17.0.3 > 172.17.0.5: ICMP echo request, id 1, seq 138, length 64
	0x0000:  4500 0054 a0b7 4000 4001 41c7 ac11 0003  E..T..@.@.A.....
	0x0010:  ac11 0005 0800 9693 0001 008a e9f1 4c65  ..............Le
	0x0020:  0000 0000 5fb7 0c00 0000 0000 1011 1213  ...._...........
	0x0030:  1415 1617 1819 1a1b 1c1d 1e1f 2021 2223  .............!"#
	0x0040:  2425 2627 2829 2a2b 2c2d 2e2f 3031 3233  $%&'()*+,-./0123
	0x0050:  3435 3637                                4567
2023-11-09 14:51:21.833435 02:42:ac:11:00:05 > 02:42:ac:11:00:03, ethertype IPv4 (0x0800), length 98: 172.17.0.5 > 172.17.0.3: ICMP echo reply, id 1, seq 138, length 64
	0x0000:  4500 0054 28cd 0000 4001 f9b1 ac11 0005  E..T(...@.......
	0x0010:  ac11 0003 0000 9e93 0001 008a e9f1 4c65  ..............Le
	0x0020:  0000 0000 5fb7 0c00 0000 0000 1011 1213  ...._...........
	0x0030:  1415 1617 1819 1a1b 1c1d 1e1f 2021 2223  .............!"#
	0x0040:  2425 2627 2829 2a2b 2c2d 2e2f 3031 3233  $%&'()*+,-./0123
	0x0050:  3435 3637                                4567
2023-11-09 14:51:21.929406 02:42:ac:11:00:05 > 02:42:ac:11:00:03, ethertype ARP (0x0806), length 42: Request who-has 172.17.0.3 tell 172.17.0.5, length 28
	0x0000:  0001 0800 0604 0001 0242 ac11 0005 ac11  .........B......
	0x0010:  0005 0000 0000 0000 ac11 0003            ............
2023-11-09 14:51:21.929474 02:42:ac:11:00:03 > 02:42:ac:11:00:05, ethertype ARP (0x0806), length 42: Reply 172.17.0.3 is-at 02:42:ac:11:00:03, length 28
	0x0000:  0001 0800 0604 0002 0242 ac11 0003 ac11  .........B......
	0x0010:  0003 0242 ac11 0005 ac11 0005            ...B........
2023-11-09 14:51:22.857397 02:42:ac:11:00:03 > 02:42:ac:11:00:05, ethertype IPv4 (0x0800), length 98: 172.17.0.3 > 172.17.0.5: ICMP echo request, id 1, seq 139, length 64
	0x0000:  4500 0054 a0cc 4000 4001 41b2 ac11 0003  E..T..@.@.A.....
	0x0010:  ac11 0005 0800 e934 0001 008b eaf1 4c65  .......4......Le
	0x0020:  0000 0000 0b15 0d00 0000 0000 1011 1213  ................
	0x0030:  1415 1617 1819 1a1b 1c1d 1e1f 2021 2223  .............!"#
	0x0040:  2425 2627 2829 2a2b 2c2d 2e2f 3031 3233  $%&'()*+,-./0123
	0x0050:  3435 3637                                4567
2023-11-09 14:51:22.857407 02:42:ac:11:00:05 > 02:42:ac:11:00:03, ethertype IPv4 (0x0800), length 98: 172.17.0.5 > 172.17.0.3: ICMP echo reply, id 1, seq 139, length 64
	0x0000:  4500 0054 29a3 0000 4001 f8db ac11 0005  E..T)...@.......
	0x0010:  ac11 0003 0000 f134 0001 008b eaf1 4c65  .......4......Le
	0x0020:  0000 0000 0b15 0d00 0000 0000 1011 1213  ................
	0x0030:  1415 1617 1819 1a1b 1c1d 1e1f 2021 2223  .............!"#
	0x0040:  2425 2627 2829 2a2b 2c2d 2e2f 3031 3233  $%&'()*+,-./0123
	0x0050:  3435 3637                                4567
2023-11-09 14:51:23.881490 02:42:ac:11:00:03 > 02:42:ac:11:00:05, ethertype IPv4 (0x0800), length 98: 172.17.0.3 > 172.17.0.5: ICMP echo request, id 1, seq 140, length 64
	0x0000:  4500 0054 a1bb 4000 4001 40c3 ac11 0003  E..T..@.@.@.....
	0x0010:  ac11 0005 0800 cad5 0001 008c ebf1 4c65  ..............Le
	0x0020:  0000 0000 2873 0d00 0000 0000 1011 1213  ....(s..........
	0x0030:  1415 1617 1819 1a1b 1c1d 1e1f 2021 2223  .............!"#
	0x0040:  2425 2627 2829 2a2b 2c2d 2e2f 3031 3233  $%&'()*+,-./0123
	0x0050:  3435 3637                                4567
2023-11-09 14:51:23.881507 02:42:ac:11:00:05 > 02:42:ac:11:00:03, ethertype IPv4 (0x0800), length 98: 172.17.0.5 > 172.17.0.3: ICMP echo reply, id 1, seq 140, length 64
	0x0000:  4500 0054 2a0e 0000 4001 f870 ac11 0005  E..T*...@..p....
	0x0010:  ac11 0003 0000 d2d5 0001 008c ebf1 4c65  ..............Le
	0x0020:  0000 0000 2873 0d00 0000 0000 1011 1213  ....(s..........
	0x0030:  1415 1617 1819 1a1b 1c1d 1e1f 2021 2223  .............!"#
	0x0040:  2425 2627 2829 2a2b 2c2d 2e2f 3031 3233  $%&'()*+,-./0123
	0x0050:  3435 3637                                4567
2023-11-09 14:51:24.905548 02:42:ac:11:00:03 > 02:42:ac:11:00:05, ethertype IPv4 (0x0800), length 98: 172.17.0.3 > 172.17.0.5: ICMP echo request, id 1, seq 141, length 64
	0x0000:  4500 0054 a246 4000 4001 4038 ac11 0003  E..T.F@.@.@8....
	0x0010:  ac11 0005 0800 d576 0001 008d ecf1 4c65  .......v......Le
	0x0020:  0000 0000 1cd1 0d00 0000 0000 1011 1213  ................
	0x0030:  1415 1617 1819 1a1b 1c1d 1e1f 2021 2223  .............!"#
	0x0040:  2425 2627 2829 2a2b 2c2d 2e2f 3031 3233  $%&'()*+,-./0123
	0x0050:  3435 3637                                4567
2023-11-09 14:51:24.905565 02:42:ac:11:00:05 > 02:42:ac:11:00:03, ethertype IPv4 (0x0800), length 98: 172.17.0.5 > 172.17.0.3: ICMP echo reply, id 1, seq 141, length 64
	0x0000:  4500 0054 2ac2 0000 4001 f7bc ac11 0005  E..T*...@.......
	0x0010:  ac11 0003 0000 dd76 0001 008d ecf1 4c65  .......v......Le
	0x0020:  0000 0000 1cd1 0d00 0000 0000 1011 1213  ................
	0x0030:  1415 1617 1819 1a1b 1c1d 1e1f 2021 2223  .............!"#
	0x0040:  2425 2627 2829 2a2b 2c2d 2e2f 3031 3233  $%&'()*+,-./0123
	0x0050:  3435 3637                                4567
2023-11-09 14:51:25.929466 02:42:ac:11:00:03 > 02:42:ac:11:00:05, ethertype IPv4 (0x0800), length 98: 172.17.0.3 > 172.17.0.5: ICMP echo request, id 1, seq 142, length 64
	0x0000:  4500 0054 a271 4000 4001 400d ac11 0003  E..T.q@.@.@.....
	0x0010:  ac11 0005 0800 6718 0001 008e edf1 4c65  ......g.......Le
	0x0020:  0000 0000 892e 0e00 0000 0000 1011 1213  ................
	0x0030:  1415 1617 1819 1a1b 1c1d 1e1f 2021 2223  .............!"#
	0x0040:  2425 2627 2829 2a2b 2c2d 2e2f 3031 3233  $%&'()*+,-./0123
	0x0050:  3435 3637                                4567
2023-11-09 14:51:25.929484 02:42:ac:11:00:05 > 02:42:ac:11:00:03, ethertype IPv4 (0x0800), length 98: 172.17.0.5 > 172.17.0.3: ICMP echo reply, id 1, seq 142, length 64
	0x0000:  4500 0054 2b33 0000 4001 f74b ac11 0005  E..T+3..@..K....
	0x0010:  ac11 0003 0000 6f18 0001 008e edf1 4c65  ......o.......Le
	0x0020:  0000 0000 892e 0e00 0000 0000 1011 1213  ................
	0x0030:  1415 1617 1819 1a1b 1c1d 1e1f 2021 2223  .............!"#
	0x0040:  2425 2627 2829 2a2b 2c2d 2e2f 3031 3233  $%&'()*+,-./0123
	0x0050:  3435 3637                                4567
2023-11-09 14:51:26.953534 02:42:ac:11:00:03 > 02:42:ac:11:00:05, ethertype IPv4 (0x0800), length 98: 172.17.0.3 > 172.17.0.5: ICMP echo request, id 1, seq 143, length 64
	0x0000:  4500 0054 a29e 4000 4001 3fe0 ac11 0003  E..T..@.@.?.....
	0x0010:  ac11 0005 0800 66b9 0001 008f eef1 4c65  ......f.......Le
	0x0020:  0000 0000 888c 0e00 0000 0000 1011 1213  ................
	0x0030:  1415 1617 1819 1a1b 1c1d 1e1f 2021 2223  .............!"#
	0x0040:  2425 2627 2829 2a2b 2c2d 2e2f 3031 3233  $%&'()*+,-./0123
	0x0050:  3435 3637                                4567
2023-11-09 14:51:26.953554 02:42:ac:11:00:05 > 02:42:ac:11:00:03, ethertype IPv4 (0x0800), length 98: 172.17.0.5 > 172.17.0.3: ICMP echo reply, id 1, seq 143, length 64
	0x0000:  4500 0054 2b46 0000 4001 f738 ac11 0005  E..T+F..@..8....
	0x0010:  ac11 0003 0000 6eb9 0001 008f eef1 4c65  ......n.......Le
	0x0020:  0000 0000 888c 0e00 0000 0000 1011 1213  ................
	0x0030:  1415 1617 1819 1a1b 1c1d 1e1f 2021 2223  .............!"#
	0x0040:  2425 2627 2829 2a2b 2c2d 2e2f 3031 3233  $%&'()*+,-./0123
	0x0050:  3435 3637                                4567
2023-11-09 14:51:27.981480 02:42:ac:11:00:03 > 02:42:ac:11:00:05, ethertype IPv4 (0x0800), length 98: 172.17.0.3 > 172.17.0.5: ICMP echo request, id 1, seq 144, length 64
	0x0000:  4500 0054 a383 4000 4001 3efb ac11 0003  E..T..@.@.>.....
	0x0010:  ac11 0005 0800 314b 0001 0090 eff1 4c65  ......1K......Le
	0x0020:  0000 0000 bcf9 0e00 0000 0000 1011 1213  ................
	0x0030:  1415 1617 1819 1a1b 1c1d 1e1f 2021 2223  .............!"#
	0x0040:  2425 2627 2829 2a2b 2c2d 2e2f 3031 3233  $%&'()*+,-./0123
	0x0050:  3435 3637                                4567
2023-11-09 14:51:27.981496 02:42:ac:11:00:05 > 02:42:ac:11:00:03, ethertype IPv4 (0x0800), length 98: 172.17.0.5 > 172.17.0.3: ICMP echo reply, id 1, seq 144, length 64
	0x0000:  4500 0054 2bfb 0000 4001 f683 ac11 0005  E..T+...@.......
	0x0010:  ac11 0003 0000 394b 0001 0090 eff1 4c65  ......9K......Le
	0x0020:  0000 0000 bcf9 0e00 0000 0000 1011 1213  ................
	0x0030:  1415 1617 1819 1a1b 1c1d 1e1f 2021 2223  .............!"#
	0x0040:  2425 2627 2829 2a2b 2c2d 2e2f 3031 3233  $%&'()*+,-./0123
	0x0050:  3435 3637                                4567
2023-11-09 14:51:29.001534 02:42:ac:11:00:03 > 02:42:ac:11:00:05, ethertype IPv4 (0x0800), length 98: 172.17.0.3 > 172.17.0.5: ICMP echo request, id 1, seq 145, length 64
	0x0000:  4500 0054 a401 4000 4001 3e7d ac11 0003  E..T..@.@.>}....
	0x0010:  ac11 0005 0800 353e 0001 0091 f1f1 4c65  ......5>......Le
	0x0020:  0000 0000 c505 0000 0000 0000 1011 1213  ................
	0x0030:  1415 1617 1819 1a1b 1c1d 1e1f 2021 2223  .............!"#
	0x0040:  2425 2627 2829 2a2b 2c2d 2e2f 3031 3233  $%&'()*+,-./0123
	0x0050:  3435 3637                                4567
2023-11-09 14:51:29.001553 02:42:ac:11:00:05 > 02:42:ac:11:00:03, ethertype IPv4 (0x0800), length 98: 172.17.0.5 > 172.17.0.3: ICMP echo reply, id 1, seq 145, length 64
	0x0000:  4500 0054 2cec 0000 4001 f592 ac11 0005  E..T,...@.......
	0x0010:  ac11 0003 0000 3d3e 0001 0091 f1f1 4c65  ......=>......Le
	0x0020:  0000 0000 c505 0000 0000 0000 1011 1213  ................
	0x0030:  1415 1617 1819 1a1b 1c1d 1e1f 2021 2223  .............!"#
	0x0040:  2425 2627 2829 2a2b 2c2d 2e2f 3031 3233  $%&'()*+,-./0123
	0x0050:  3435 3637                                4567
2023-11-09 14:51:30.025515 02:42:ac:11:00:03 > 02:42:ac:11:00:05, ethertype IPv4 (0x0800), length 98: 172.17.0.3 > 172.17.0.5: ICMP echo request, id 1, seq 146, length 64
	0x0000:  4500 0054 a4ea 4000 4001 3d94 ac11 0003  E..T..@.@.=.....
	0x0010:  ac11 0005 0800 83df 0001 0092 f2f1 4c65  ..............Le
	0x0020:  0000 0000 7563 0000 0000 0000 1011 1213  ....uc..........
	0x0030:  1415 1617 1819 1a1b 1c1d 1e1f 2021 2223  .............!"#
	0x0040:  2425 2627 2829 2a2b 2c2d 2e2f 3031 3233  $%&'()*+,-./0123
	0x0050:  3435 3637                                4567
2023-11-09 14:51:30.025533 02:42:ac:11:00:05 > 02:42:ac:11:00:03, ethertype IPv4 (0x0800), length 98: 172.17.0.5 > 172.17.0.3: ICMP echo reply, id 1, seq 146, length 64
	0x0000:  4500 0054 2da2 0000 4001 f4dc ac11 0005  E..T-...@.......
	0x0010:  ac11 0003 0000 8bdf 0001 0092 f2f1 4c65  ..............Le
	0x0020:  0000 0000 7563 0000 0000 0000 1011 1213  ....uc..........
	0x0030:  1415 1617 1819 1a1b 1c1d 1e1f 2021 2223  .............!"#
	0x0040:  2425 2627 2829 2a2b 2c2d 2e2f 3031 3233  $%&'()*+,-./0123
	0x0050:  3435 3637                                4567
2023-11-09 14:51:31.049512 02:42:ac:11:00:03 > 02:42:ac:11:00:05, ethertype IPv4 (0x0800), length 98: 172.17.0.3 > 172.17.0.5: ICMP echo request, id 1, seq 147, length 64
	0x0000:  4500 0054 a527 4000 4001 3d57 ac11 0003  E..T.'@.@.=W....
	0x0010:  ac11 0005 0800 c680 0001 0093 f3f1 4c65  ..............Le
	0x0020:  0000 0000 31c1 0000 0000 0000 1011 1213  ....1...........
	0x0030:  1415 1617 1819 1a1b 1c1d 1e1f 2021 2223  .............!"#
	0x0040:  2425 2627 2829 2a2b 2c2d 2e2f 3031 3233  $%&'()*+,-./0123
	0x0050:  3435 3637                                4567
2023-11-09 14:51:31.049532 02:42:ac:11:00:05 > 02:42:ac:11:00:03, ethertype IPv4 (0x0800), length 98: 172.17.0.5 > 172.17.0.3: ICMP echo reply, id 1, seq 147, length 64
	0x0000:  4500 0054 2dcf 0000 4001 f4af ac11 0005  E..T-...@.......
	0x0010:  ac11 0003 0000 ce80 0001 0093 f3f1 4c65  ..............Le
	0x0020:  0000 0000 31c1 0000 0000 0000 1011 1213  ....1...........
	0x0030:  1415 1617 1819 1a1b 1c1d 1e1f 2021 2223  .............!"#
	0x0040:  2425 2627 2829 2a2b 2c2d 2e2f 3031 3233  $%&'()*+,-./0123
	0x0050:  3435 3637                                4567
2023-11-09 14:51:32.073508 02:42:ac:11:00:03 > 02:42:ac:11:00:05, ethertype IPv4 (0x0800), length 98: 172.17.0.3 > 172.17.0.5: ICMP echo request, id 1, seq 148, length 64
	0x0000:  4500 0054 a5e7 4000 4001 3c97 ac11 0003  E..T..@.@.<.....
	0x0010:  ac11 0005 0800 0822 0001 0094 f4f1 4c65  ......."......Le
	0x0020:  0000 0000 ee1e 0100 0000 0000 1011 1213  ................
	0x0030:  1415 1617 1819 1a1b 1c1d 1e1f 2021 2223  .............!"#
	0x0040:  2425 2627 2829 2a2b 2c2d 2e2f 3031 3233  $%&'()*+,-./0123
	0x0050:  3435 3637                                4567
2023-11-09 14:51:32.073527 02:42:ac:11:00:05 > 02:42:ac:11:00:03, ethertype IPv4 (0x0800), length 98: 172.17.0.5 > 172.17.0.3: ICMP echo reply, id 1, seq 148, length 64
	0x0000:  4500 0054 2dec 0000 4001 f492 ac11 0005  E..T-...@.......
	0x0010:  ac11 0003 0000 1022 0001 0094 f4f1 4c65  ......."......Le
	0x0020:  0000 0000 ee1e 0100 0000 0000 1011 1213  ................
	0x0030:  1415 1617 1819 1a1b 1c1d 1e1f 2021 2223  .............!"#
	0x0040:  2425 2627 2829 2a2b 2c2d 2e2f 3031 3233  $%&'()*+,-./0123
	0x0050:  3435 3637                                4567
2023-11-09 14:51:33.097519 02:42:ac:11:00:03 > 02:42:ac:11:00:05, ethertype IPv4 (0x0800), length 98: 172.17.0.3 > 172.17.0.5: ICMP echo request, id 1, seq 149, length 64
	0x0000:  4500 0054 a6a3 4000 4001 3bdb ac11 0003  E..T..@.@.;.....
	0x0010:  ac11 0005 0800 4cc3 0001 0095 f5f1 4c65  ......L.......Le
	0x0020:  0000 0000 a87c 0100 0000 0000 1011 1213  .....|..........
	0x0030:  1415 1617 1819 1a1b 1c1d 1e1f 2021 2223  .............!"#
	0x0040:  2425 2627 2829 2a2b 2c2d 2e2f 3031 3233  $%&'()*+,-./0123
	0x0050:  3435 3637                                4567
2023-11-09 14:51:33.097535 02:42:ac:11:00:05 > 02:42:ac:11:00:03, ethertype IPv4 (0x0800), length 98: 172.17.0.5 > 172.17.0.3: ICMP echo reply, id 1, seq 149, length 64
	0x0000:  4500 0054 2e98 0000 4001 f3e6 ac11 0005  E..T....@.......
	0x0010:  ac11 0003 0000 54c3 0001 0095 f5f1 4c65  ......T.......Le
	0x0020:  0000 0000 a87c 0100 0000 0000 1011 1213  .....|..........
	0x0030:  1415 1617 1819 1a1b 1c1d 1e1f 2021 2223  .............!"#
	0x0040:  2425 2627 2829 2a2b 2c2d 2e2f 3031 3233  $%&'()*+,-./0123
	0x0050:  3435 3637                                4567
2023-11-09 14:51:34.121471 02:42:ac:11:00:03 > 02:42:ac:11:00:05, ethertype IPv4 (0x0800), length 98: 172.17.0.3 > 172.17.0.5: ICMP echo request, id 1, seq 150, length 64
	0x0000:  4500 0054 a6aa 4000 4001 3bd4 ac11 0003  E..T..@.@.;.....
	0x0010:  ac11 0005 0800 a964 0001 0096 f6f1 4c65  .......d......Le
	0x0020:  0000 0000 4ada 0100 0000 0000 1011 1213  ....J...........
	0x0030:  1415 1617 1819 1a1b 1c1d 1e1f 2021 2223  .............!"#
	0x0040:  2425 2627 2829 2a2b 2c2d 2e2f 3031 3233  $%&'()*+,-./0123
	0x0050:  3435 3637                                4567
2023-11-09 14:51:34.121491 02:42:ac:11:00:05 > 02:42:ac:11:00:03, ethertype IPv4 (0x0800), length 98: 172.17.0.5 > 172.17.0.3: ICMP echo reply, id 1, seq 150, length 64
	0x0000:  4500 0054 2f3e 0000 4001 f340 ac11 0005  E..T/>..@..@....
	0x0010:  ac11 0003 0000 b164 0001 0096 f6f1 4c65  .......d......Le
	0x0020:  0000 0000 4ada 0100 0000 0000 1011 1213  ....J...........
	0x0030:  1415 1617 1819 1a1b 1c1d 1e1f 2021 2223  .............!"#
	0x0040:  2425 2627 2829 2a2b 2c2d 2e2f 3031 3233  $%&'()*+,-./0123
	0x0050:  3435 3637                                4567
2023-11-09 14:51:35.149423 02:42:ac:11:00:03 > 02:42:ac:11:00:05, ethertype IPv4 (0x0800), length 98: 172.17.0.3 > 172.17.0.5: ICMP echo request, id 1, seq 151, length 64
	0x0000:  4500 0054 a798 4000 4001 3ae6 ac11 0003  E..T..@.@.:.....
	0x0010:  ac11 0005 0800 79f6 0001 0097 f7f1 4c65  ......y.......Le
	0x0020:  0000 0000 7847 0200 0000 0000 1011 1213  ....xG..........
	0x0030:  1415 1617 1819 1a1b 1c1d 1e1f 2021 2223  .............!"#
	0x0040:  2425 2627 2829 2a2b 2c2d 2e2f 3031 3233  $%&'()*+,-./0123
	0x0050:  3435 3637                                4567
2023-11-09 14:51:35.149440 02:42:ac:11:00:05 > 02:42:ac:11:00:03, ethertype IPv4 (0x0800), length 98: 172.17.0.5 > 172.17.0.3: ICMP echo reply, id 1, seq 151, length 64
	0x0000:  4500 0054 3019 0000 4001 f265 ac11 0005  E..T0...@..e....
	0x0010:  ac11 0003 0000 81f6 0001 0097 f7f1 4c65  ..............Le
	0x0020:  0000 0000 7847 0200 0000 0000 1011 1213  ....xG..........
	0x0030:  1415 1617 1819 1a1b 1c1d 1e1f 2021 2223  .............!"#
	0x0040:  2425 2627 2829 2a2b 2c2d 2e2f 3031 3233  $%&'()*+,-./0123
	0x0050:  3435 3637                                4567
2023-11-09 14:51:36.169522 02:42:ac:11:00:03 > 02:42:ac:11:00:05, ethertype IPv4 (0x0800), length 98: 172.17.0.3 > 172.17.0.5: ICMP echo request, id 1, seq 152, length 64
	0x0000:  4500 0054 a88b 4000 4001 39f3 ac11 0003  E..T..@.@.9.....
	0x0010:  ac11 0005 0800 f4a6 0001 0098 f8f1 4c65  ..............Le
	0x0020:  0000 0000 fc95 0200 0000 0000 1011 1213  ................
	0x0030:  1415 1617 1819 1a1b 1c1d 1e1f 2021 2223  .............!"#
	0x0040:  2425 2627 2829 2a2b 2c2d 2e2f 3031 3233  $%&'()*+,-./0123
	0x0050:  3435 3637                                4567
2023-11-09 14:51:36.169541 02:42:ac:11:00:05 > 02:42:ac:11:00:03, ethertype IPv4 (0x0800), length 98: 172.17.0.5 > 172.17.0.3: ICMP echo reply, id 1, seq 152, length 64
	0x0000:  4500 0054 30a8 0000 4001 f1d6 ac11 0005  E..T0...@.......
	0x0010:  ac11 0003 0000 fca6 0001 0098 f8f1 4c65  ..............Le
	0x0020:  0000 0000 fc95 0200 0000 0000 1011 1213  ................
	0x0030:  1415 1617 1819 1a1b 1c1d 1e1f 2021 2223  .............!"#
	0x0040:  2425 2627 2829 2a2b 2c2d 2e2f 3031 3233  $%&'()*+,-./0123
	0x0050:  3435 3637                                4567
2023-11-09 14:51:37.193519 02:42:ac:11:00:03 > 02:42:ac:11:00:05, ethertype IPv4 (0x0800), length 98: 172.17.0.3 > 172.17.0.5: ICMP echo request, id 1, seq 153, length 64
	0x0000:  4500 0054 a91e 4000 4001 3960 ac11 0003  E..T..@.@.9`....
	0x0010:  ac11 0005 0800 3648 0001 0099 f9f1 4c65  ......6H......Le
	0x0020:  0000 0000 b9f3 0200 0000 0000 1011 1213  ................
	0x0030:  1415 1617 1819 1a1b 1c1d 1e1f 2021 2223  .............!"#
	0x0040:  2425 2627 2829 2a2b 2c2d 2e2f 3031 3233  $%&'()*+,-./0123
	0x0050:  3435 3637                                4567
2023-11-09 14:51:37.193539 02:42:ac:11:00:05 > 02:42:ac:11:00:03, ethertype IPv4 (0x0800), length 98: 172.17.0.5 > 172.17.0.3: ICMP echo reply, id 1, seq 153, length 64
	0x0000:  4500 0054 30de 0000 4001 f1a0 ac11 0005  E..T0...@.......
	0x0010:  ac11 0003 0000 3e48 0001 0099 f9f1 4c65  ......>H......Le
	0x0020:  0000 0000 b9f3 0200 0000 0000 1011 1213  ................
	0x0030:  1415 1617 1819 1a1b 1c1d 1e1f 2021 2223  .............!"#
	0x0040:  2425 2627 2829 2a2b 2c2d 2e2f 3031 3233  $%&'()*+,-./0123
	0x0050:  3435 3637                                4567
2023-11-09 14:51:38.221558 02:42:ac:11:00:03 > 02:42:ac:11:00:05, ethertype IPv4 (0x0800), length 98: 172.17.0.3 > 172.17.0.5: ICMP echo request, id 1, seq 154, length 64
	0x0000:  4500 0054 a96d 4000 4001 3911 ac11 0003  E..T.m@.@.9.....
	0x0010:  ac11 0005 0800 cad9 0001 009a faf1 4c65  ..............Le
	0x0020:  0000 0000 2361 0300 0000 0000 1011 1213  ....#a..........
	0x0030:  1415 1617 1819 1a1b 1c1d 1e1f 2021 2223  .............!"#
	0x0040:  2425 2627 2829 2a2b 2c2d 2e2f 3031 3233  $%&'()*+,-./0123
	0x0050:  3435 3637                                4567
2023-11-09 14:51:38.221591 02:42:ac:11:00:05 > 02:42:ac:11:00:03, ethertype IPv4 (0x0800), length 98: 172.17.0.5 > 172.17.0.3: ICMP echo reply, id 1, seq 154, length 64
	0x0000:  4500 0054 317a 0000 4001 f104 ac11 0005  E..T1z..@.......
	0x0010:  ac11 0003 0000 d2d9 0001 009a faf1 4c65  ..............Le
	0x0020:  0000 0000 2361 0300 0000 0000 1011 1213  ....#a..........
	0x0030:  1415 1617 1819 1a1b 1c1d 1e1f 2021 2223  .............!"#
	0x0040:  2425 2627 2829 2a2b 2c2d 2e2f 3031 3233  $%&'()*+,-./0123
	0x0050:  3435 3637                                4567
2023-11-09 14:51:38.313465 02:42:ac:11:00:03 > 02:42:ac:11:00:05, ethertype ARP (0x0806), length 42: Request who-has 172.17.0.5 tell 172.17.0.3, length 28
	0x0000:  0001 0800 0604 0001 0242 ac11 0003 ac11  .........B......
	0x0010:  0003 0000 0000 0000 ac11 0005            ............
2023-11-09 14:51:38.313479 02:42:ac:11:00:05 > 02:42:ac:11:00:03, ethertype ARP (0x0806), length 42: Reply 172.17.0.5 is-at 02:42:ac:11:00:05, length 28
	0x0000:  0001 0800 0604 0002 0242 ac11 0005 ac11  .........B......
	0x0010:  0005 0242 ac11 0003 ac11 0003            ...B........
2023-11-09 14:51:39.241524 02:42:ac:11:00:03 > 02:42:ac:11:00:05, ethertype IPv4 (0x0800), length 98: 172.17.0.3 > 172.17.0.5: ICMP echo request, id 1, seq 155, length 64
	0x0000:  4500 0054 aa1c 4000 4001 3862 ac11 0003  E..T..@.@.8b....
	0x0010:  ac11 0005 0800 b28a 0001 009b fbf1 4c65  ..............Le
	0x0020:  0000 0000 3aaf 0300 0000 0000 1011 1213  ....:...........
	0x0030:  1415 1617 1819 1a1b 1c1d 1e1f 2021 2223  .............!"#
	0x0040:  2425 2627 2829 2a2b 2c2d 2e2f 3031 3233  $%&'()*+,-./0123
	0x0050:  3435 3637                                4567
2023-11-09 14:51:39.241543 02:42:ac:11:00:05 > 02:42:ac:11:00:03, ethertype IPv4 (0x0800), length 98: 172.17.0.5 > 172.17.0.3: ICMP echo reply, id 1, seq 155, length 64
	0x0000:  4500 0054 3250 0000 4001 f02e ac11 0005  E..T2P..@.......
	0x0010:  ac11 0003 0000 ba8a 0001 009b fbf1 4c65  ..............Le
	0x0020:  0000 0000 3aaf 0300 0000 0000 1011 1213  ....:...........
	0x0030:  1415 1617 1819 1a1b 1c1d 1e1f 2021 2223  .............!"#
	0x0040:  2425 2627 2829 2a2b 2c2d 2e2f 3031 3233  $%&'()*+,-./0123
	0x0050:  3435 3637                                4567
2023-11-09 14:51:40.265534 02:42:ac:11:00:03 > 02:42:ac:11:00:05, ethertype IPv4 (0x0800), length 98: 172.17.0.3 > 172.17.0.5: ICMP echo request, id 1, seq 156, length 64
	0x0000:  4500 0054 aa7d 4000 4001 3801 ac11 0003  E..T.}@.@.8.....
	0x0010:  ac11 0005 0800 e42b 0001 009c fcf1 4c65  .......+......Le
	0x0020:  0000 0000 070d 0400 0000 0000 1011 1213  ................
	0x0030:  1415 1617 1819 1a1b 1c1d 1e1f 2021 2223  .............!"#
	0x0040:  2425 2627 2829 2a2b 2c2d 2e2f 3031 3233  $%&'()*+,-./0123
	0x0050:  3435 3637                                4567
2023-11-09 14:51:40.265554 02:42:ac:11:00:05 > 02:42:ac:11:00:03, ethertype IPv4 (0x0800), length 98: 172.17.0.5 > 172.17.0.3: ICMP echo reply, id 1, seq 156, length 64
	0x0000:  4500 0054 32ef 0000 4001 ef8f ac11 0005  E..T2...@.......
	0x0010:  ac11 0003 0000 ec2b 0001 009c fcf1 4c65  .......+......Le
	0x0020:  0000 0000 070d 0400 0000 0000 1011 1213  ................
	0x0030:  1415 1617 1819 1a1b 1c1d 1e1f 2021 2223  .............!"#
	0x0040:  2425 2627 2829 2a2b 2c2d 2e2f 3031 3233  $%&'()*+,-./0123
	0x0050:  3435 3637                                4567
2023-11-09 14:51:41.289527 02:42:ac:11:00:03 > 02:42:ac:11:00:05, ethertype IPv4 (0x0800), length 98: 172.17.0.3 > 172.17.0.5: ICMP echo request, id 1, seq 157, length 64
	0x0000:  4500 0054 ab4e 4000 4001 3730 ac11 0003  E..T.N@.@.70....
	0x0010:  ac11 0005 0800 2ecd 0001 009d fdf1 4c65  ..............Le
	0x0020:  0000 0000 bb6a 0400 0000 0000 1011 1213  .....j..........
	0x0030:  1415 1617 1819 1a1b 1c1d 1e1f 2021 2223  .............!"#
	0x0040:  2425 2627 2829 2a2b 2c2d 2e2f 3031 3233  $%&'()*+,-./0123
	0x0050:  3435 3637                                4567
2023-11-09 14:51:41.289551 02:42:ac:11:00:05 > 02:42:ac:11:00:03, ethertype IPv4 (0x0800), length 98: 172.17.0.5 > 172.17.0.3: ICMP echo reply, id 1, seq 157, length 64
	0x0000:  4500 0054 3366 0000 4001 ef18 ac11 0005  E..T3f..@.......
	0x0010:  ac11 0003 0000 36cd 0001 009d fdf1 4c65  ......6.......Le
	0x0020:  0000 0000 bb6a 0400 0000 0000 1011 1213  .....j..........
	0x0030:  1415 1617 1819 1a1b 1c1d 1e1f 2021 2223  .............!"#
	0x0040:  2425 2627 2829 2a2b 2c2d 2e2f 3031 3233  $%&'()*+,-./0123
	0x0050:  3435 3637                                4567
2023-11-09 14:51:42.313524 02:42:ac:11:00:03 > 02:42:ac:11:00:05, ethertype IPv4 (0x0800), length 98: 172.17.0.3 > 172.17.0.5: ICMP echo request, id 1, seq 158, length 64
	0x0000:  4500 0054 abd8 4000 4001 36a6 ac11 0003  E..T..@.@.6.....
	0x0010:  ac11 0005 0800 6a6e 0001 009e fef1 4c65  ......jn......Le
	0x0020:  0000 0000 7ec8 0400 0000 0000 1011 1213  ....~...........
	0x0030:  1415 1617 1819 1a1b 1c1d 1e1f 2021 2223  .............!"#
	0x0040:  2425 2627 2829 2a2b 2c2d 2e2f 3031 3233  $%&'()*+,-./0123
	0x0050:  3435 3637                                4567
2023-11-09 14:51:42.313545 02:42:ac:11:00:05 > 02:42:ac:11:00:03, ethertype IPv4 (0x0800), length 98: 172.17.0.5 > 172.17.0.3: ICMP echo reply, id 1, seq 158, length 64
	0x0000:  4500 0054 340f 0000 4001 ee6f ac11 0005  E..T4...@..o....
	0x0010:  ac11 0003 0000 726e 0001 009e fef1 4c65  ......rn......Le
	0x0020:  0000 0000 7ec8 0400 0000 0000 1011 1213  ....~...........
	0x0030:  1415 1617 1819 1a1b 1c1d 1e1f 2021 2223  .............!"#
	0x0040:  2425 2627 2829 2a2b 2c2d 2e2f 3031 3233  $%&'()*+,-./0123
	0x0050:  3435 3637                                4567
2023-11-09 14:51:43.337516 02:42:ac:11:00:03 > 02:42:ac:11:00:05, ethertype IPv4 (0x0800), length 98: 172.17.0.3 > 172.17.0.5: ICMP echo request, id 1, seq 159, length 64
	0x0000:  4500 0054 ac86 4000 4001 35f8 ac11 0003  E..T..@.@.5.....
	0x0010:  ac11 0005 0800 b10f 0001 009f fff1 4c65  ..............Le
	0x0020:  0000 0000 3626 0500 0000 0000 1011 1213  ....6&..........
	0x0030:  1415 1617 1819 1a1b 1c1d 1e1f 2021 2223  .............!"#
	0x0040:  2425 2627 2829 2a2b 2c2d 2e2f 3031 3233  $%&'()*+,-./0123
	0x0050:  3435 3637                                4567
2023-11-09 14:51:43.337537 02:42:ac:11:00:05 > 02:42:ac:11:00:03, ethertype IPv4 (0x0800), length 98: 172.17.0.5 > 172.17.0.3: ICMP echo reply, id 1, seq 159, length 64
	0x0000:  4500 0054 34eb 0000 4001 ed93 ac11 0005  E..T4...@.......
	0x0010:  ac11 0003 0000 b90f 0001 009f fff1 4c65  ..............Le
	0x0020:  0000 0000 3626 0500 0000 0000 1011 1213  ....6&..........
	0x0030:  1415 1617 1819 1a1b 1c1d 1e1f 2021 2223  .............!"#
	0x0040:  2425 2627 2829 2a2b 2c2d 2e2f 3031 3233  $%&'()*+,-./0123
	0x0050:  3435 3637                                4567
2023-11-09 14:51:44.361516 02:42:ac:11:00:03 > 02:42:ac:11:00:05, ethertype IPv4 (0x0800), length 98: 172.17.0.3 > 172.17.0.5: ICMP echo request, id 1, seq 160, length 64
	0x0000:  4500 0054 accf 4000 4001 35af ac11 0003  E..T..@.@.5.....
	0x0010:  ac11 0005 0800 efb0 0001 00a0 00f2 4c65  ..............Le
	0x0020:  0000 0000 f683 0500 0000 0000 1011 1213  ................
	0x0030:  1415 1617 1819 1a1b 1c1d 1e1f 2021 2223  .............!"#
	0x0040:  2425 2627 2829 2a2b 2c2d 2e2f 3031 3233  $%&'()*+,-./0123
	0x0050:  3435 3637                                4567
2023-11-09 14:51:44.361536 02:42:ac:11:00:05 > 02:42:ac:11:00:03, ethertype IPv4 (0x0800), length 98: 172.17.0.5 > 172.17.0.3: ICMP echo reply, id 1, seq 160, length 64
	0x0000:  4500 0054 3597 0000 4001 ece7 ac11 0005  E..T5...@.......
	0x0010:  ac11 0003 0000 f7b0 0001 00a0 00f2 4c65  ..............Le
	0x0020:  0000 0000 f683 0500 0000 0000 1011 1213  ................
	0x0030:  1415 1617 1819 1a1b 1c1d 1e1f 2021 2223  .............!"#
	0x0040:  2425 2627 2829 2a2b 2c2d 2e2f 3031 3233  $%&'()*+,-./0123
	0x0050:  3435 3637                                4567
2023-11-09 14:51:45.385523 02:42:ac:11:00:03 > 02:42:ac:11:00:05, ethertype IPv4 (0x0800), length 98: 172.17.0.3 > 172.17.0.5: ICMP echo request, id 1, seq 161, length 64
	0x0000:  4500 0054 ad4d 4000 4001 3531 ac11 0003  E..T.M@.@.51....
	0x0010:  ac11 0005 0800 2852 0001 00a1 01f2 4c65  ......(R......Le
	0x0020:  0000 0000 bce1 0500 0000 0000 1011 1213  ................
	0x0030:  1415 1617 1819 1a1b 1c1d 1e1f 2021 2223  .............!"#
	0x0040:  2425 2627 2829 2a2b 2c2d 2e2f 3031 3233  $%&'()*+,-./0123
	0x0050:  3435 3637                                4567
2023-11-09 14:51:45.385542 02:42:ac:11:00:05 > 02:42:ac:11:00:03, ethertype IPv4 (0x0800), length 98: 172.17.0.5 > 172.17.0.3: ICMP echo reply, id 1, seq 161, length 64
	0x0000:  4500 0054 359d 0000 4001 ece1 ac11 0005  E..T5...@.......
	0x0010:  ac11 0003 0000 3052 0001 00a1 01f2 4c65  ......0R......Le
	0x0020:  0000 0000 bce1 0500 0000 0000 1011 1213  ................
	0x0030:  1415 1617 1819 1a1b 1c1d 1e1f 2021 2223  .............!"#
	0x0040:  2425 2627 2829 2a2b 2c2d 2e2f 3031 3233  $%&'()*+,-./0123
	0x0050:  3435 3637                                4567
2023-11-09 14:51:46.409578 02:42:ac:11:00:03 > 02:42:ac:11:00:05, ethertype IPv4 (0x0800), length 98: 172.17.0.3 > 172.17.0.5: ICMP echo request, id 1, seq 162, length 64
	0x0000:  4500 0054 ad6f 4000 4001 350f ac11 0003  E..T.o@.@.5.....
	0x0010:  ac11 0005 0800 2df3 0001 00a2 02f2 4c65  ......-.......Le
	0x0020:  0000 0000 b53f 0600 0000 0000 1011 1213  .....?..........
	0x0030:  1415 1617 1819 1a1b 1c1d 1e1f 2021 2223  .............!"#
	0x0040:  2425 2627 2829 2a2b 2c2d 2e2f 3031 3233  $%&'()*+,-./0123
	0x0050:  3435 3637                                4567
2023-11-09 14:51:46.409597 02:42:ac:11:00:05 > 02:42:ac:11:00:03, ethertype IPv4 (0x0800), length 98: 172.17.0.5 > 172.17.0.3: ICMP echo reply, id 1, seq 162, length 64
	0x0000:  4500 0054 3615 0000 4001 ec69 ac11 0005  E..T6...@..i....
	0x0010:  ac11 0003 0000 35f3 0001 00a2 02f2 4c65  ......5.......Le
	0x0020:  0000 0000 b53f 0600 0000 0000 1011 1213  .....?..........
	0x0030:  1415 1617 1819 1a1b 1c1d 1e1f 2021 2223  .............!"#
	0x0040:  2425 2627 2829 2a2b 2c2d 2e2f 3031 3233  $%&'()*+,-./0123
	0x0050:  3435 3637                                4567
2023-11-09 14:51:46.505440 02:42:ac:11:00:05 > 02:42:ac:11:00:03, ethertype ARP (0x0806), length 42: Request who-has 172.17.0.3 tell 172.17.0.5, length 28
	0x0000:  0001 0800 0604 0001 0242 ac11 0005 ac11  .........B......
	0x0010:  0005 0000 0000 0000 ac11 0003            ............
2023-11-09 14:51:46.505490 02:42:ac:11:00:03 > 02:42:ac:11:00:05, ethertype ARP (0x0806), length 42: Reply 172.17.0.3 is-at 02:42:ac:11:00:03, length 28
	0x0000:  0001 0800 0604 0002 0242 ac11 0003 ac11  .........B......
	0x0010:  0003 0242 ac11 0005 ac11 0005            ...B........
2023-11-09 14:51:47.433516 02:42:ac:11:00:03 > 02:42:ac:11:00:05, ethertype IPv4 (0x0800), length 98: 172.17.0.3 > 172.17.0.5: ICMP echo request, id 1, seq 163, length 64
	0x0000:  4500 0054 ae4f 4000 4001 342f ac11 0003  E..T.O@.@.4/....
	0x0010:  ac11 0005 0800 aa94 0001 00a3 03f2 4c65  ..............Le
	0x0020:  0000 0000 379d 0600 0000 0000 1011 1213  ....7...........
	0x0030:  1415 1617 1819 1a1b 1c1d 1e1f 2021 2223  .............!"#
	0x0040:  2425 2627 2829 2a2b 2c2d 2e2f 3031 3233  $%&'()*+,-./0123
	0x0050:  3435 3637                                4567
2023-11-09 14:51:47.433535 02:42:ac:11:00:05 > 02:42:ac:11:00:03, ethertype IPv4 (0x0800), length 98: 172.17.0.5 > 172.17.0.3: ICMP echo reply, id 1, seq 163, length 64
	0x0000:  4500 0054 369c 0000 4001 ebe2 ac11 0005  E..T6...@.......
	0x0010:  ac11 0003 0000 b294 0001 00a3 03f2 4c65  ..............Le
	0x0020:  0000 0000 379d 0600 0000 0000 1011 1213  ....7...........
	0x0030:  1415 1617 1819 1a1b 1c1d 1e1f 2021 2223  .............!"#
	0x0040:  2425 2627 2829 2a2b 2c2d 2e2f 3031 3233  $%&'()*+,-./0123
	0x0050:  3435 3637                                4567
2023-11-09 14:51:48.457521 02:42:ac:11:00:03 > 02:42:ac:11:00:05, ethertype IPv4 (0x0800), length 98: 172.17.0.3 > 172.17.0.5: ICMP echo request, id 1, seq 164, length 64
	0x0000:  4500 0054 aeb5 4000 4001 33c9 ac11 0003  E..T..@.@.3.....
	0x0010:  ac11 0005 0800 e435 0001 00a4 04f2 4c65  .......5......Le
	0x0020:  0000 0000 fcfa 0600 0000 0000 1011 1213  ................
	0x0030:  1415 1617 1819 1a1b 1c1d 1e1f 2021 2223  .............!"#
	0x0040:  2425 2627 2829 2a2b 2c2d 2e2f 3031 3233  $%&'()*+,-./0123
	0x0050:  3435 3637                                4567
2023-11-09 14:51:48.457540 02:42:ac:11:00:05 > 02:42:ac:11:00:03, ethertype IPv4 (0x0800), length 98: 172.17.0.5 > 172.17.0.3: ICMP echo reply, id 1, seq 164, length 64
	0x0000:  4500 0054 36bb 0000 4001 ebc3 ac11 0005  E..T6...@.......
	0x0010:  ac11 0003 0000 ec35 0001 00a4 04f2 4c65  .......5......Le
	0x0020:  0000 0000 fcfa 0600 0000 0000 1011 1213  ................
	0x0030:  1415 1617 1819 1a1b 1c1d 1e1f 2021 2223  .............!"#
	0x0040:  2425 2627 2829 2a2b 2c2d 2e2f 3031 3233  $%&'()*+,-./0123
	0x0050:  3435 3637                                4567
2023-11-09 14:51:49.481516 02:42:ac:11:00:03 > 02:42:ac:11:00:05, ethertype IPv4 (0x0800), length 98: 172.17.0.3 > 172.17.0.5: ICMP echo request, id 1, seq 165, length 64
	0x0000:  4500 0054 af4f 4000 4001 332f ac11 0003  E..T.O@.@.3/....
	0x0010:  ac11 0005 0800 27d7 0001 00a5 05f2 4c65  ......'.......Le
	0x0020:  0000 0000 b758 0700 0000 0000 1011 1213  .....X..........
	0x0030:  1415 1617 1819 1a1b 1c1d 1e1f 2021 2223  .............!"#
	0x0040:  2425 2627 2829 2a2b 2c2d 2e2f 3031 3233  $%&'()*+,-./0123
	0x0050:  3435 3637                                4567
2023-11-09 14:51:49.481534 02:42:ac:11:00:05 > 02:42:ac:11:00:03, ethertype IPv4 (0x0800), length 98: 172.17.0.5 > 172.17.0.3: ICMP echo reply, id 1, seq 165, length 64
	0x0000:  4500 0054 372c 0000 4001 eb52 ac11 0005  E..T7,..@..R....
	0x0010:  ac11 0003 0000 2fd7 0001 00a5 05f2 4c65  ....../.......Le
	0x0020:  0000 0000 b758 0700 0000 0000 1011 1213  .....X..........
	0x0030:  1415 1617 1819 1a1b 1c1d 1e1f 2021 2223  .............!"#
	0x0040:  2425 2627 2829 2a2b 2c2d 2e2f 3031 3233  $%&'()*+,-./0123
	0x0050:  3435 3637                                4567
2023-11-09 14:51:50.505518 02:42:ac:11:00:03 > 02:42:ac:11:00:05, ethertype IPv4 (0x0800), length 98: 172.17.0.3 > 172.17.0.5: ICMP echo request, id 1, seq 166, length 64
	0x0000:  4500 0054 afb0 4000 4001 32ce ac11 0003  E..T..@.@.2.....
	0x0010:  ac11 0005 0800 6478 0001 00a6 06f2 4c65  ......dx......Le
	0x0020:  0000 0000 79b6 0700 0000 0000 1011 1213  ....y...........
	0x0030:  1415 1617 1819 1a1b 1c1d 1e1f 2021 2223  .............!"#
	0x0040:  2425 2627 2829 2a2b 2c2d 2e2f 3031 3233  $%&'()*+,-./0123
	0x0050:  3435 3637                                4567
2023-11-09 14:51:50.505538 02:42:ac:11:00:05 > 02:42:ac:11:00:03, ethertype IPv4 (0x0800), length 98: 172.17.0.5 > 172.17.0.3: ICMP echo reply, id 1, seq 166, length 64
	0x0000:  4500 0054 3755 0000 4001 eb29 ac11 0005  E..T7U..@..)....
	0x0010:  ac11 0003 0000 6c78 0001 00a6 06f2 4c65  ......lx......Le
	0x0020:  0000 0000 79b6 0700 0000 0000 1011 1213  ....y...........
	0x0030:  1415 1617 1819 1a1b 1c1d 1e1f 2021 2223  .............!"#
	0x0040:  2425 2627 2829 2a2b 2c2d 2e2f 3031 3233  $%&'()*+,-./0123
	0x0050:  3435 3637                                4567
2023-11-09 14:51:51.529511 02:42:ac:11:00:03 > 02:42:ac:11:00:05, ethertype IPv4 (0x0800), length 98: 172.17.0.3 > 172.17.0.5: ICMP echo request, id 1, seq 167, length 64
	0x0000:  4500 0054 afe8 4000 4001 3296 ac11 0003  E..T..@.@.2.....
	0x0010:  ac11 0005 0800 a919 0001 00a7 07f2 4c65  ..............Le
	0x0020:  0000 0000 3314 0800 0000 0000 1011 1213  ....3...........
	0x0030:  1415 1617 1819 1a1b 1c1d 1e1f 2021 2223  .............!"#
	0x0040:  2425 2627 2829 2a2b 2c2d 2e2f 3031 3233  $%&'()*+,-./0123
	0x0050:  3435 3637                                4567
2023-11-09 14:51:51.529530 02:42:ac:11:00:05 > 02:42:ac:11:00:03, ethertype IPv4 (0x0800), length 98: 172.17.0.5 > 172.17.0.3: ICMP echo reply, id 1, seq 167, length 64
	0x0000:  4500 0054 37e8 0000 4001 ea96 ac11 0005  E..T7...@.......
	0x0010:  ac11 0003 0000 b119 0001 00a7 07f2 4c65  ..............Le
	0x0020:  0000 0000 3314 0800 0000 0000 1011 1213  ....3...........
	0x0030:  1415 1617 1819 1a1b 1c1d 1e1f 2021 2223  .............!"#
	0x0040:  2425 2627 2829 2a2b 2c2d 2e2f 3031 3233  $%&'()*+,-./0123
	0x0050:  3435 3637                                4567
2023-11-09 14:51:52.557481 02:42:ac:11:00:03 > 02:42:ac:11:00:05, ethertype IPv4 (0x0800), length 98: 172.17.0.3 > 172.17.0.5: ICMP echo request, id 1, seq 168, length 64
	0x0000:  4500 0054 b03d 4000 4001 3241 ac11 0003  E..T.=@.@.2A....
	0x0010:  ac11 0005 0800 64ab 0001 00a8 08f2 4c65  ......d.......Le
	0x0020:  0000 0000 7681 0800 0000 0000 1011 1213  ....v...........
	0x0030:  1415 1617 1819 1a1b 1c1d 1e1f 2021 2223  .............!"#
	0x0040:  2425 2627 2829 2a2b 2c2d 2e2f 3031 3233  $%&'()*+,-./0123
	0x0050:  3435 3637                                4567
2023-11-09 14:51:52.557500 02:42:ac:11:00:05 > 02:42:ac:11:00:03, ethertype IPv4 (0x0800), length 98: 172.17.0.5 > 172.17.0.3: ICMP echo reply, id 1, seq 168, length 64
	0x0000:  4500 0054 37f9 0000 4001 ea85 ac11 0005  E..T7...@.......
	0x0010:  ac11 0003 0000 6cab 0001 00a8 08f2 4c65  ......l.......Le
	0x0020:  0000 0000 7681 0800 0000 0000 1011 1213  ....v...........
	0x0030:  1415 1617 1819 1a1b 1c1d 1e1f 2021 2223  .............!"#
	0x0040:  2425 2627 2829 2a2b 2c2d 2e2f 3031 3233  $%&'()*+,-./0123
	0x0050:  3435 3637                                4567
2023-11-09 14:51:53.577485 02:42:ac:11:00:03 > 02:42:ac:11:00:05, ethertype IPv4 (0x0800), length 98: 172.17.0.3 > 172.17.0.5: ICMP echo request, id 1, seq 169, length 64
	0x0000:  4500 0054 b0ba 4000 4001 31c4 ac11 0003  E..T..@.@.1.....
	0x0010:  ac11 0005 0800 435c 0001 00a9 09f2 4c65  ......C\......Le
	0x0020:  0000 0000 96cf 0800 0000 0000 1011 1213  ................
	0x0030:  1415 1617 1819 1a1b 1c1d 1e1f 2021 2223  .............!"#
	0x0040:  2425 2627 2829 2a2b 2c2d 2e2f 3031 3233  $%&'()*+,-./0123
	0x0050:  3435 3637                                4567
2023-11-09 14:51:53.577505 02:42:ac:11:00:05 > 02:42:ac:11:00:03, ethertype IPv4 (0x0800), length 98: 172.17.0.5 > 172.17.0.3: ICMP echo reply, id 1, seq 169, length 64
	0x0000:  4500 0054 38bf 0000 4001 e9bf ac11 0005  E..T8...@.......
	0x0010:  ac11 0003 0000 4b5c 0001 00a9 09f2 4c65  ......K\......Le
	0x0020:  0000 0000 96cf 0800 0000 0000 1011 1213  ................
	0x0030:  1415 1617 1819 1a1b 1c1d 1e1f 2021 2223  .............!"#
	0x0040:  2425 2627 2829 2a2b 2c2d 2e2f 3031 3233  $%&'()*+,-./0123
	0x0050:  3435 3637                                4567
2023-11-09 14:51:54.601522 02:42:ac:11:00:03 > 02:42:ac:11:00:05, ethertype IPv4 (0x0800), length 98: 172.17.0.3 > 172.17.0.5: ICMP echo request, id 1, seq 170, length 64
	0x0000:  4500 0054 b0f5 4000 4001 3189 ac11 0003  E..T..@.@.1.....
	0x0010:  ac11 0005 0800 5afd 0001 00aa 0af2 4c65  ......Z.......Le
	0x0020:  0000 0000 7d2d 0900 0000 0000 1011 1213  ....}-..........
	0x0030:  1415 1617 1819 1a1b 1c1d 1e1f 2021 2223  .............!"#
	0x0040:  2425 2627 2829 2a2b 2c2d 2e2f 3031 3233  $%&'()*+,-./0123
	0x0050:  3435 3637                                4567
2023-11-09 14:51:54.601541 02:42:ac:11:00:05 > 02:42:ac:11:00:03, ethertype IPv4 (0x0800), length 98: 172.17.0.5 > 172.17.0.3: ICMP echo reply, id 1, seq 170, length 64
	0x0000:  4500 0054 38d8 0000 4001 e9a6 ac11 0005  E..T8...@.......
	0x0010:  ac11 0003 0000 62fd 0001 00aa 0af2 4c65  ......b.......Le
	0x0020:  0000 0000 7d2d 0900 0000 0000 1011 1213  ....}-..........
	0x0030:  1415 1617 1819 1a1b 1c1d 1e1f 2021 2223  .............!"#
	0x0040:  2425 2627 2829 2a2b 2c2d 2e2f 3031 3233  $%&'()*+,-./0123
	0x0050:  3435 3637                                4567
2023-11-09 14:51:55.625510 02:42:ac:11:00:03 > 02:42:ac:11:00:05, ethertype IPv4 (0x0800), length 98: 172.17.0.3 > 172.17.0.5: ICMP echo request, id 1, seq 171, length 64
	0x0000:  4500 0054 b0f8 4000 4001 3186 ac11 0003  E..T..@.@.1.....
	0x0010:  ac11 0005 0800 a49e 0001 00ab 0bf2 4c65  ..............Le
	0x0020:  0000 0000 328b 0900 0000 0000 1011 1213  ....2...........
	0x0030:  1415 1617 1819 1a1b 1c1d 1e1f 2021 2223  .............!"#
	0x0040:  2425 2627 2829 2a2b 2c2d 2e2f 3031 3233  $%&'()*+,-./0123
	0x0050:  3435 3637                                4567
2023-11-09 14:51:55.625529 02:42:ac:11:00:05 > 02:42:ac:11:00:03, ethertype IPv4 (0x0800), length 98: 172.17.0.5 > 172.17.0.3: ICMP echo reply, id 1, seq 171, length 64
	0x0000:  4500 0054 39a2 0000 4001 e8dc ac11 0005  E..T9...@.......
	0x0010:  ac11 0003 0000 ac9e 0001 00ab 0bf2 4c65  ..............Le
	0x0020:  0000 0000 328b 0900 0000 0000 1011 1213  ....2...........
	0x0030:  1415 1617 1819 1a1b 1c1d 1e1f 2021 2223  .............!"#
	0x0040:  2425 2627 2829 2a2b 2c2d 2e2f 3031 3233  $%&'()*+,-./0123
	0x0050:  3435 3637                                4567
2023-11-09 14:51:56.649515 02:42:ac:11:00:03 > 02:42:ac:11:00:05, ethertype IPv4 (0x0800), length 98: 172.17.0.3 > 172.17.0.5: ICMP echo request, id 1, seq 172, length 64
	0x0000:  4500 0054 b1cd 4000 4001 30b1 ac11 0003  E..T..@.@.0.....
	0x0010:  ac11 0005 0800 de3f 0001 00ac 0cf2 4c65  .......?......Le
	0x0020:  0000 0000 f7e8 0900 0000 0000 1011 1213  ................
	0x0030:  1415 1617 1819 1a1b 1c1d 1e1f 2021 2223  .............!"#
	0x0040:  2425 2627 2829 2a2b 2c2d 2e2f 3031 3233  $%&'()*+,-./0123
	0x0050:  3435 3637                                4567
2023-11-09 14:51:56.649534 02:42:ac:11:00:05 > 02:42:ac:11:00:03, ethertype IPv4 (0x0800), length 98: 172.17.0.5 > 172.17.0.3: ICMP echo reply, id 1, seq 172, length 64
	0x0000:  4500 0054 3a92 0000 4001 e7ec ac11 0005  E..T:...@.......
	0x0010:  ac11 0003 0000 e63f 0001 00ac 0cf2 4c65  .......?......Le
	0x0020:  0000 0000 f7e8 0900 0000 0000 1011 1213  ................
	0x0030:  1415 1617 1819 1a1b 1c1d 1e1f 2021 2223  .............!"#
	0x0040:  2425 2627 2829 2a2b 2c2d 2e2f 3031 3233  $%&'()*+,-./0123
	0x0050:  3435 3637                                4567
2023-11-09 14:51:57.673518 02:42:ac:11:00:03 > 02:42:ac:11:00:05, ethertype IPv4 (0x0800), length 98: 172.17.0.3 > 172.17.0.5: ICMP echo request, id 1, seq 173, length 64
	0x0000:  4500 0054 b201 4000 4001 307d ac11 0003  E..T..@.@.0}....
	0x0010:  ac11 0005 0800 1ae1 0001 00ad 0df2 4c65  ..............Le
	0x0020:  0000 0000 b946 0a00 0000 0000 1011 1213  .....F..........
	0x0030:  1415 1617 1819 1a1b 1c1d 1e1f 2021 2223  .............!"#
	0x0040:  2425 2627 2829 2a2b 2c2d 2e2f 3031 3233  $%&'()*+,-./0123
	0x0050:  3435 3637                                4567
2023-11-09 14:51:57.673537 02:42:ac:11:00:05 > 02:42:ac:11:00:03, ethertype IPv4 (0x0800), length 98: 172.17.0.5 > 172.17.0.3: ICMP echo reply, id 1, seq 173, length 64
	0x0000:  4500 0054 3ad9 0000 4001 e7a5 ac11 0005  E..T:...@.......
	0x0010:  ac11 0003 0000 22e1 0001 00ad 0df2 4c65  ......".......Le
	0x0020:  0000 0000 b946 0a00 0000 0000 1011 1213  .....F..........
	0x0030:  1415 1617 1819 1a1b 1c1d 1e1f 2021 2223  .............!"#
	0x0040:  2425 2627 2829 2a2b 2c2d 2e2f 3031 3233  $%&'()*+,-./0123
	0x0050:  3435 3637                                4567
2023-11-09 14:51:58.697516 02:42:ac:11:00:03 > 02:42:ac:11:00:05, ethertype IPv4 (0x0800), length 98: 172.17.0.3 > 172.17.0.5: ICMP echo request, id 1, seq 174, length 64
	0x0000:  4500 0054 b2db 4000 4001 2fa3 ac11 0003  E..T..@.@./.....
	0x0010:  ac11 0005 0800 5c82 0001 00ae 0ef2 4c65  ......\.......Le
	0x0020:  0000 0000 76a4 0a00 0000 0000 1011 1213  ....v...........
	0x0030:  1415 1617 1819 1a1b 1c1d 1e1f 2021 2223  .............!"#
	0x0040:  2425 2627 2829 2a2b 2c2d 2e2f 3031 3233  $%&'()*+,-./0123
	0x0050:  3435 3637                                4567
2023-11-09 14:51:58.697537 02:42:ac:11:00:05 > 02:42:ac:11:00:03, ethertype IPv4 (0x0800), length 98: 172.17.0.5 > 172.17.0.3: ICMP echo reply, id 1, seq 174, length 64
	0x0000:  4500 0054 3b36 0000 4001 e748 ac11 0005  E..T;6..@..H....
	0x0010:  ac11 0003 0000 6482 0001 00ae 0ef2 4c65  ......d.......Le
	0x0020:  0000 0000 76a4 0a00 0000 0000 1011 1213  ....v...........
	0x0030:  1415 1617 1819 1a1b 1c1d 1e1f 2021 2223  .............!"#
	0x0040:  2425 2627 2829 2a2b 2c2d 2e2f 3031 3233  $%&'()*+,-./0123
	0x0050:  3435 3637                                4567
2023-11-09 14:51:59.721510 02:42:ac:11:00:03 > 02:42:ac:11:00:05, ethertype IPv4 (0x0800), length 98: 172.17.0.3 > 172.17.0.5: ICMP echo request, id 1, seq 175, length 64
	0x0000:  4500 0054 b3da 4000 4001 2ea4 ac11 0003  E..T..@.@.......
	0x0010:  ac11 0005 0800 9f23 0001 00af 0ff2 4c65  .......#......Le
	0x0020:  0000 0000 3202 0b00 0000 0000 1011 1213  ....2...........
	0x0030:  1415 1617 1819 1a1b 1c1d 1e1f 2021 2223  .............!"#
	0x0040:  2425 2627 2829 2a2b 2c2d 2e2f 3031 3233  $%&'()*+,-./0123
	0x0050:  3435 3637                                4567
2023-11-09 14:51:59.721529 02:42:ac:11:00:05 > 02:42:ac:11:00:03, ethertype IPv4 (0x0800), length 98: 172.17.0.5 > 172.17.0.3: ICMP echo reply, id 1, seq 175, length 64
	0x0000:  4500 0054 3c32 0000 4001 e64c ac11 0005  E..T<2..@..L....
	0x0010:  ac11 0003 0000 a723 0001 00af 0ff2 4c65  .......#......Le
	0x0020:  0000 0000 3202 0b00 0000 0000 1011 1213  ....2...........
	0x0030:  1415 1617 1819 1a1b 1c1d 1e1f 2021 2223  .............!"#
	0x0040:  2425 2627 2829 2a2b 2c2d 2e2f 3031 3233  $%&'()*+,-./0123
	0x0050:  3435 3637                                4567
2023-11-09 14:52:00.745532 02:42:ac:11:00:03 > 02:42:ac:11:00:05, ethertype IPv4 (0x0800), length 98: 172.17.0.3 > 172.17.0.5: ICMP echo request, id 1, seq 176, length 64
	0x0000:  4500 0054 b495 4000 4001 2de9 ac11 0003  E..T..@.@.-.....
	0x0010:  ac11 0005 0800 c8c4 0001 00b0 10f2 4c65  ..............Le
	0x0020:  0000 0000 0760 0b00 0000 0000 1011 1213  .....`..........
	0x0030:  1415 1617 1819 1a1b 1c1d 1e1f 2021 2223  .............!"#
	0x0040:  2425 2627 2829 2a2b 2c2d 2e2f 3031 3233  $%&'()*+,-./0123
	0x0050:  3435 3637                                4567
2023-11-09 14:52:00.745551 02:42:ac:11:00:05 > 02:42:ac:11:00:03, ethertype IPv4 (0x0800), length 98: 172.17.0.5 > 172.17.0.3: ICMP echo reply, id 1, seq 176, length 64
	0x0000:  4500 0054 3d2c 0000 4001 e552 ac11 0005  E..T=,..@..R....
	0x0010:  ac11 0003 0000 d0c4 0001 00b0 10f2 4c65  ..............Le
	0x0020:  0000 0000 0760 0b00 0000 0000 1011 1213  .....`..........
	0x0030:  1415 1617 1819 1a1b 1c1d 1e1f 2021 2223  .............!"#
	0x0040:  2425 2627 2829 2a2b 2c2d 2e2f 3031 3233  $%&'()*+,-./0123
	0x0050:  3435 3637                                4567
2023-11-09 14:52:01.769497 02:42:ac:11:00:03 > 02:42:ac:11:00:05, ethertype IPv4 (0x0800), length 98: 172.17.0.3 > 172.17.0.5: ICMP echo request, id 1, seq 177, length 64
	0x0000:  4500 0054 b501 4000 4001 2d7d ac11 0003  E..T..@.@.-}....
	0x0010:  ac11 0005 0800 2866 0001 00b1 11f2 4c65  ......(f......Le
	0x0020:  0000 0000 a6bd 0b00 0000 0000 1011 1213  ................
	0x0030:  1415 1617 1819 1a1b 1c1d 1e1f 2021 2223  .............!"#
	0x0040:  2425 2627 2829 2a2b 2c2d 2e2f 3031 3233  $%&'()*+,-./0123
	0x0050:  3435 3637                                4567
2023-11-09 14:52:01.769516 02:42:ac:11:00:05 > 02:42:ac:11:00:03, ethertype IPv4 (0x0800), length 98: 172.17.0.5 > 172.17.0.3: ICMP echo reply, id 1, seq 177, length 64
	0x0000:  4500 0054 3e1b 0000 4001 e463 ac11 0005  E..T>...@..c....
	0x0010:  ac11 0003 0000 3066 0001 00b1 11f2 4c65  ......0f......Le
	0x0020:  0000 0000 a6bd 0b00 0000 0000 1011 1213  ................
	0x0030:  1415 1617 1819 1a1b 1c1d 1e1f 2021 2223  .............!"#
	0x0040:  2425 2627 2829 2a2b 2c2d 2e2f 3031 3233  $%&'()*+,-./0123
	0x0050:  3435 3637                                4567
2023-11-09 14:52:02.793535 02:42:ac:11:00:03 > 02:42:ac:11:00:05, ethertype IPv4 (0x0800), length 98: 172.17.0.3 > 172.17.0.5: ICMP echo request, id 1, seq 178, length 64
	0x0000:  4500 0054 b5a6 4000 4001 2cd8 ac11 0003  E..T..@.@.,.....
	0x0010:  ac11 0005 0800 4407 0001 00b2 12f2 4c65  ......D.......Le
	0x0020:  0000 0000 891b 0c00 0000 0000 1011 1213  ................
	0x0030:  1415 1617 1819 1a1b 1c1d 1e1f 2021 2223  .............!"#
	0x0040:  2425 2627 2829 2a2b 2c2d 2e2f 3031 3233  $%&'()*+,-./0123
	0x0050:  3435 3637                                4567
2023-11-09 14:52:02.793554 02:42:ac:11:00:05 > 02:42:ac:11:00:03, ethertype IPv4 (0x0800), length 98: 172.17.0.5 > 172.17.0.3: ICMP echo reply, id 1, seq 178, length 64
	0x0000:  4500 0054 3e68 0000 4001 e416 ac11 0005  E..T>h..@.......
	0x0010:  ac11 0003 0000 4c07 0001 00b2 12f2 4c65  ......L.......Le
	0x0020:  0000 0000 891b 0c00 0000 0000 1011 1213  ................
	0x0030:  1415 1617 1819 1a1b 1c1d 1e1f 2021 2223  .............!"#
	0x0040:  2425 2627 2829 2a2b 2c2d 2e2f 3031 3233  $%&'()*+,-./0123
	0x0050:  3435 3637                                4567
2023-11-09 14:52:03.817520 02:42:ac:11:00:03 > 02:42:ac:11:00:05, ethertype IPv4 (0x0800), length 98: 172.17.0.3 > 172.17.0.5: ICMP echo request, id 1, seq 179, length 64
	0x0000:  4500 0054 b689 4000 4001 2bf5 ac11 0003  E..T..@.@.+.....
	0x0010:  ac11 0005 0800 91a8 0001 00b3 13f2 4c65  ..............Le
	0x0020:  0000 0000 3a79 0c00 0000 0000 1011 1213  ....:y..........
	0x0030:  1415 1617 1819 1a1b 1c1d 1e1f 2021 2223  .............!"#
	0x0040:  2425 2627 2829 2a2b 2c2d 2e2f 3031 3233  $%&'()*+,-./0123
	0x0050:  3435 3637                                4567
2023-11-09 14:52:03.817539 02:42:ac:11:00:05 > 02:42:ac:11:00:03, ethertype IPv4 (0x0800), length 98: 172.17.0.5 > 172.17.0.3: ICMP echo reply, id 1, seq 179, length 64
	0x0000:  4500 0054 3f4f 0000 4001 e32f ac11 0005  E..T?O..@../....
	0x0010:  ac11 0003 0000 99a8 0001 00b3 13f2 4c65  ..............Le
	0x0020:  0000 0000 3a79 0c00 0000 0000 1011 1213  ....:y..........
	0x0030:  1415 1617 1819 1a1b 1c1d 1e1f 2021 2223  .............!"#
	0x0040:  2425 2627 2829 2a2b 2c2d 2e2f 3031 3233  $%&'()*+,-./0123
	0x0050:  3435 3637                                4567
2023-11-09 14:52:04.841538 02:42:ac:11:00:03 > 02:42:ac:11:00:05, ethertype IPv4 (0x0800), length 98: 172.17.0.3 > 172.17.0.5: ICMP echo request, id 1, seq 180, length 64
	0x0000:  4500 0054 b742 4000 4001 2b3c ac11 0003  E..T.B@.@.+<....
	0x0010:  ac11 0005 0800 be49 0001 00b4 14f2 4c65  .......I......Le
	0x0020:  0000 0000 0cd7 0c00 0000 0000 1011 1213  ................
	0x0030:  1415 1617 1819 1a1b 1c1d 1e1f 2021 2223  .............!"#
	0x0040:  2425 2627 2829 2a2b 2c2d 2e2f 3031 3233  $%&'()*+,-./0123
	0x0050:  3435 3637                                4567
2023-11-09 14:52:04.841557 02:42:ac:11:00:05 > 02:42:ac:11:00:03, ethertype IPv4 (0x0800), length 98: 172.17.0.5 > 172.17.0.3: ICMP echo reply, id 1, seq 180, length 64
	0x0000:  4500 0054 3f64 0000 4001 e31a ac11 0005  E..T?d..@.......
	0x0010:  ac11 0003 0000 c649 0001 00b4 14f2 4c65  .......I......Le
	0x0020:  0000 0000 0cd7 0c00 0000 0000 1011 1213  ................
	0x0030:  1415 1617 1819 1a1b 1c1d 1e1f 2021 2223  .............!"#
	0x0040:  2425 2627 2829 2a2b 2c2d 2e2f 3031 3233  $%&'()*+,-./0123
	0x0050:  3435 3637                                4567
2023-11-09 14:52:05.865538 02:42:ac:11:00:03 > 02:42:ac:11:00:05, ethertype IPv4 (0x0800), length 98: 172.17.0.3 > 172.17.0.5: ICMP echo request, id 1, seq 181, length 64
	0x0000:  4500 0054 b816 4000 4001 2a68 ac11 0003  E..T..@.@.*h....
	0x0010:  ac11 0005 0800 06eb 0001 00b5 15f2 4c65  ..............Le
	0x0020:  0000 0000 c234 0d00 0000 0000 1011 1213  .....4..........
	0x0030:  1415 1617 1819 1a1b 1c1d 1e1f 2021 2223  .............!"#
	0x0040:  2425 2627 2829 2a2b 2c2d 2e2f 3031 3233  $%&'()*+,-./0123
	0x0050:  3435 3637                                4567
2023-11-09 14:52:05.865561 02:42:ac:11:00:05 > 02:42:ac:11:00:03, ethertype IPv4 (0x0800), length 98: 172.17.0.5 > 172.17.0.3: ICMP echo reply, id 1, seq 181, length 64
	0x0000:  4500 0054 3f82 0000 4001 e2fc ac11 0005  E..T?...@.......
	0x0010:  ac11 0003 0000 0eeb 0001 00b5 15f2 4c65  ..............Le
	0x0020:  0000 0000 c234 0d00 0000 0000 1011 1213  .....4..........
	0x0030:  1415 1617 1819 1a1b 1c1d 1e1f 2021 2223  .............!"#
	0x0040:  2425 2627 2829 2a2b 2c2d 2e2f 3031 3233  $%&'()*+,-./0123
	0x0050:  3435 3637                                4567
2023-11-09 14:52:06.889521 02:42:ac:11:00:03 > 02:42:ac:11:00:05, ethertype IPv4 (0x0800), length 98: 172.17.0.3 > 172.17.0.5: ICMP echo request, id 1, seq 182, length 64
	0x0000:  4500 0054 b8e9 4000 4001 2995 ac11 0003  E..T..@.@.).....
	0x0010:  ac11 0005 0800 4b8c 0001 00b6 16f2 4c65  ......K.......Le
	0x0020:  0000 0000 7c92 0d00 0000 0000 1011 1213  ....|...........
	0x0030:  1415 1617 1819 1a1b 1c1d 1e1f 2021 2223  .............!"#
	0x0040:  2425 2627 2829 2a2b 2c2d 2e2f 3031 3233  $%&'()*+,-./0123
	0x0050:  3435 3637                                4567
2023-11-09 14:52:06.889540 02:42:ac:11:00:05 > 02:42:ac:11:00:03, ethertype IPv4 (0x0800), length 98: 172.17.0.5 > 172.17.0.3: ICMP echo reply, id 1, seq 182, length 64
	0x0000:  4500 0054 3fcc 0000 4001 e2b2 ac11 0005  E..T?...@.......
	0x0010:  ac11 0003 0000 538c 0001 00b6 16f2 4c65  ......S.......Le
	0x0020:  0000 0000 7c92 0d00 0000 0000 1011 1213  ....|...........
	0x0030:  1415 1617 1819 1a1b 1c1d 1e1f 2021 2223  .............!"#
	0x0040:  2425 2627 2829 2a2b 2c2d 2e2f 3031 3233  $%&'()*+,-./0123
	0x0050:  3435 3637                                4567
2023-11-09 14:52:07.913582 02:42:ac:11:00:03 > 02:42:ac:11:00:05, ethertype IPv4 (0x0800), length 98: 172.17.0.3 > 172.17.0.5: ICMP echo request, id 1, seq 183, length 64
	0x0000:  4500 0054 b8ef 4000 4001 298f ac11 0003  E..T..@.@.).....
	0x0010:  ac11 0005 0800 762d 0001 00b7 17f2 4c65  ......v-......Le
	0x0020:  0000 0000 50f0 0d00 0000 0000 1011 1213  ....P...........
	0x0030:  1415 1617 1819 1a1b 1c1d 1e1f 2021 2223  ..2023-11-09 14:52:12.009523 02:42:ac:11:00:03 > 02:42:ac:11:00:05, ethertype IPv4 (0x0800), length 98: 172.17.0.3 > 172.17.0.5: ICMP echo request, id 1, seq 187, length 64
	0x0000:  4500 0054 bb5d 4000 4001 2721 ac11 0003  E..T.]@.@.'!....
	0x0010:  ac11 0005 0800 d0f4 0001 00bb 1cf2 4c65  ..............Le
	0x0020:  0000 0000 fe24 0000 0000 0000 1011 1213  .....$..........
	0x0030:  1415 1617 1819 1a1b 1c1d 1e1f 2021 2223  .............!"#
	0x0040:  2425 2627 2829 2a2b 2c2d 2e2f 3031 3233  $%&'()*+,-./0123
	0x0050:  3435 3637                                4567
2023-11-09 14:52:12.009544 02:42:ac:11:00:05 > 02:42:ac:11:00:03, ethertype IPv4 (0x0800), length 98: 172.17.0.5 > 172.17.0.3: ICMP echo reply, id 1, seq 187, length 64
	0x0000:  4500 0054 41e4 0000 4001 e09a ac11 0005  E..TA...@.......
	0x0010:  ac11 0003 0000 d8f4 0001 00bb 1cf2 4c65  ..............Le
	0x0020:  0000 0000 fe24 0000 0000 0000 1011 1213  .....$..........
	0x0030:  1415 1617 1819 1a1b 1c1d 1e1f 2021 2223  .............!"#
	0x0040:  2425 2627 2829 2a2b 2c2d 2e2f 3031 3233  $%&'()*+,-./0123
	0x0050:  3435 3637                                4567
2023-11-09 14:52:13.033553 02:42:ac:11:00:03 > 02:42:ac:11:00:05, ethertype IPv4 (0x0800), length 98: 172.17.0.3 > 172.17.0.5: ICMP echo request, id 1, seq 188, length 64
	0x0000:  4500 0054 bbc2 4000 4001 26bc ac11 0003  E..T..@.@.&.....
	0x0010:  ac11 0005 0800 e695 0001 00bc 1df2 4c65  ..............Le
	0x0020:  0000 0000 e782 0000 0000 0000 1011 1213  ................
	0x0030:  1415 1617 1819 1a1b 1c1d 1e1f 2021 2223  .............!"#
	0x0040:  2425 2627 2829 2a2b 2c2d 2e2f 3031 3233  $%&'()*+,-./0123
	0x0050:  3435 3637                                4567
2023-11-09 14:52:13.033566 02:42:ac:11:00:05 > 02:42:ac:11:00:03, ethertype IPv4 (0x0800), length 98: 172.17.0.5 > 172.17.0.3: ICMP echo reply, id 1, seq 188, length 64
	0x0000:  4500 0054 425f 0000 4001 e01f ac11 0005  E..TB_..@.......
	0x0010:  ac11 0003 0000 ee95 0001 00bc 1df2 4c65  ..............Le
	0x0020:  0000 0000 e782 0000 0000 0000 1011 1213  ................
	0x0030:  1415 1617 1819 1a1b 1c1d 1e1f 2021 2223  .............!"#
	0x0040:  2425 2627 2829 2a2b 2c2d 2e2f 3031 3233  $%&'()*+,-./0123
	0x0050:  3435 3637                                4567
2023-11-09 14:52:13.129439 02:42:ac:11:00:03 > 02:42:ac:11:00:05, ethertype ARP (0x0806), length 42: Request who-has 172.17.0.5 tell 172.17.0.3, length 28
	0x0000:  0001 0800 0604 0001 0242 ac11 0003 ac11  .........B......
	0x0010:  0003 0000 0000 0000 ac11 0005            ............
2023-11-09 14:52:13.129454 02:42:ac:11:00:05 > 02:42:ac:11:00:03, ethertype ARP (0x0806), length 42: Reply 172.17.0.5 is-at 02:42:ac:11:00:05, length 28
	0x0000:  0001 0800 0604 0002 0242 ac11 0005 ac11  .........B......
	0x0010:  0005 0242 ac11 0003 ac11 0003            ...B........
2023-11-09 14:52:14.057519 02:42:ac:11:00:03 > 02:42:ac:11:00:05, ethertype IPv4 (0x0800), length 98: 172.17.0.3 > 172.17.0.5: ICMP echo request, id 1, seq 189, length 64
	0x0000:  4500 0054 bbcd 4000 4001 26b1 ac11 0003  E..T..@.@.&.....
	0x0010:  ac11 0005 0800 5237 0001 00bd 1ef2 4c65  ......R7......Le
	0x0020:  0000 0000 7ae0 0000 0000 0000 1011 1213  ....z...........
	0x0030:  1415 1617 1819 1a1b 1c1d 1e1f 2021 2223  .............!"#
	0x0040:  2425 2627 2829 2a2b 2c2d 2e2f 3031 3233  $%&'()*+,-./0123
	0x0050:  3435 3637                                4567
2023-11-09 14:52:14.057540 02:42:ac:11:00:05 > 02:42:ac:11:00:03, ethertype IPv4 (0x0800), length 98: 172.17.0.5 > 172.17.0.3: ICMP echo reply, id 1, seq 189, length 64
	0x0000:  4500 0054 42a2 0000 4001 dfdc ac11 0005  E..TB...@.......
	0x0010:  ac11 0003 0000 5a37 0001 00bd 1ef2 4c65  ......Z7......Le
	0x0020:  0000 0000 7ae0 0000 0000 0000 1011 1213  ....z...........
	0x0030:  1415 1617 1819 1a1b 1c1d 1e1f 2021 2223  .............!"#
	0x0040:  2425 2627 2829 2a2b 2c2d 2e2f 3031 3233  $%&'()*+,-./0123
	0x0050:  3435 3637                                4567
2023-11-09 14:52:15.081504 02:42:ac:11:00:03 > 02:42:ac:11:00:05, ethertype IPv4 (0x0800), length 98: 172.17.0.3 > 172.17.0.5: ICMP echo request, id 1, seq 190, length 64
	0x0000:  4500 0054 bc97 4000 4001 25e7 ac11 0003  E..T..@.@.%.....
	0x0010:  ac11 0005 0800 9ed8 0001 00be 1ff2 4c65  ..............Le
	0x0020:  0000 0000 2c3e 0100 0000 0000 1011 1213  ....,>..........
	0x0030:  1415 1617 1819 1a1b 1c1d 1e1f 2021 2223  .............!"#
	0x0040:  2425 2627 2829 2a2b 2c2d 2e2f 3031 3233  $%&'()*+,-./0123
	0x0050:  3435 3637                                4567
2023-11-09 14:52:15.081525 02:42:ac:11:00:05 > 02:42:ac:11:00:03, ethertype IPv4 (0x0800), length 98: 172.17.0.5 > 172.17.0.3: ICMP echo reply, id 1, seq 190, length 64
	0x0000:  4500 0054 437e 0000 4001 df00 ac11 0005  E..TC~..@.......
	0x0010:  ac11 0003 0000 a6d8 0001 00be 1ff2 4c65  ..............Le
	0x0020:  0000 0000 2c3e 0100 0000 0000 1011 1213  ....,>..........
	0x0030:  1415 1617 1819 1a1b 1c1d 1e1f 2021 2223  .............!"#
	0x0040:  2425 2627 2829 2a2b 2c2d 2e2f 3031 3233  $%&'()*+,-./0123
	0x0050:  3435 3637                                4567
2023-11-09 14:52:16.105521 02:42:ac:11:00:03 > 02:42:ac:11:00:05, ethertype IPv4 (0x0800), length 98: 172.17.0.3 > 172.17.0.5: ICMP echo request, id 1, seq 191, length 64
	0x0000:  4500 0054 bd7a 4000 4001 2504 ac11 0003  E..T.z@.@.%.....
	0x0010:  ac11 0005 0800 cd79 0001 00bf 20f2 4c65  .......y......Le
	0x0020:  0000 0000 fc9b 0100 0000 0000 1011 1213  ................
	0x0030:  1415 1617 1819 1a1b 1c1d 1e1f 2021 2223  .............!"#
	0x0040:  2425 2627 2829 2a2b 2c2d 2e2f 3031 3233  $%&'()*+,-./0123
	0x0050:  3435 3637                                4567
2023-11-09 14:52:16.105541 02:42:ac:11:00:05 > 02:42:ac:11:00:03, ethertype IPv4 (0x0800), length 98: 172.17.0.5 > 172.17.0.3: ICMP echo reply, id 1, seq 191, length 64
	0x0000:  4500 0054 4406 0000 4001 de78 ac11 0005  E..TD...@..x....
	0x0010:  ac11 0003 0000 d579 0001 00bf 20f2 4c65  .......y......Le
	0x0020:  0000 0000 fc9b 0100 0000 0000 1011 1213  ................
	0x0030:  1415 1617 1819 1a1b 1c1d 1e1f 2021 2223  .............!"#
	0x0040:  2425 2627 2829 2a2b 2c2d 2e2f 3031 3233  $%&'()*+,-./0123
	0x0050:  3435 3637                                4567
2023-11-09 14:52:17.129537 02:42:ac:11:00:03 > 02:42:ac:11:00:05, ethertype IPv4 (0x0800), length 98: 172.17.0.3 > 172.17.0.5: ICMP echo request, id 1, seq 192, length 64
	0x0000:  4500 0054 be3e 4000 4001 2440 ac11 0003  E..T.>@.@.$@....
	0x0010:  ac11 0005 0800 fc1a 0001 00c0 21f2 4c65  ............!.Le
	0x0020:  0000 0000 ccf9 0100 0000 0000 1011 1213  ................
	0x0030:  1415 1617 1819 1a1b 1c1d 1e1f 2021 2223  .............!"#
	0x0040:  2425 2627 2829 2a2b 2c2d 2e2f 3031 3233  $%&'()*+,-./0123
	0x0050:  3435 3637                                4567
2023-11-09 14:52:17.129557 02:42:ac:11:00:05 > 02:42:ac:11:00:03, ethertype IPv4 (0x0800), length 98: 172.17.0.5 > 172.17.0.3: ICMP echo reply, id 1, seq 192, length 64
	0x0000:  4500 0054 44da 0000 4001 dda4 ac11 0005  E..TD...@.......
	0x0010:  ac11 0003 0000 041b 0001 00c0 21f2 4c65  ............!.Le
	0x0020:  0000 0000 ccf9 0100 0000 0000 1011 1213  ................
	0x0030:  1415 1617 1819 1a1b 1c1d 1e1f 2021 2223  .............!"#
	0x0040:  2425 2627 2829 2a2b 2c2d 2e2f 3031 3233  $%&'()*+,-./0123
	0x0050:  3435 3637                                4567
2023-11-09 14:52:18.153533 02:42:ac:11:00:03 > 02:42:ac:11:00:05, ethertype IPv4 (0x0800), length 98: 172.17.0.3 > 172.17.0.5: ICMP echo request, id 1, seq 193, length 64
	0x0000:  4500 0054 bf39 4000 4001 2345 ac11 0003  E..T.9@.@.#E....
	0x0010:  ac11 0005 0800 43bc 0001 00c1 22f2 4c65  ......C.....".Le
	0x0020:  0000 0000 8357 0200 0000 0000 1011 1213  .....W..........
	0x0030:  1415 1617 1819 1a1b 1c1d 1e1f 2021 2223  .............!"#
	0x0040:  2425 2627 2829 2a2b 2c2d 2e2f 3031 3233  $%&'()*+,-./0123
	0x0050:  3435 3637                                4567
2023-11-09 14:52:18.153556 02:42:ac:11:00:05 > 02:42:ac:11:00:03, ethertype IPv4 (0x0800), length 98: 172.17.0.5 > 172.17.0.3: ICMP echo reply, id 1, seq 193, length 64
	0x0000:  4500 0054 45b8 0000 4001 dcc6 ac11 0005  E..TE...@.......
	0x0010:  ac11 0003 0000 4bbc 0001 00c1 22f2 4c65  ......K.....".Le
	0x0020:  0000 0000 8357 0200 0000 0000 1011 1213  .....W..........
	0x0030:  1415 1617 1819 1a1b 1c1d 1e1f 2021 2223  .............!"#
	0x0040:  2425 2627 2829 2a2b 2c2d 2e2f 3031 3233  $%&'()*+,-./0123
	0x0050:  3435 3637                                4567
2023-11-09 14:52:19.177519 02:42:ac:11:00:03 > 02:42:ac:11:00:05, ethertype IPv4 (0x0800), length 98: 172.17.0.3 > 172.17.0.5: ICMP echo request, id 1, seq 194, length 64
	0x0000:  4500 0054 bf91 4000 4001 22ed ac11 0003  E..T..@.@.".....
	0x0010:  ac11 0005 0800 8a5d 0001 00c2 23f2 4c65  .......]....#.Le
	0x0020:  0000 0000 3bb5 0200 0000 0000 1011 1213  ....;...........
	0x0030:  1415 1617 1819 1a1b 1c1d 1e1f 2021 2223  .............!"#
	0x0040:  2425 2627 2829 2a2b 2c2d 2e2f 3031 3233  $%&'()*+,-./0123
	0x0050:  3435 3637                                4567
2023-11-09 14:52:19.177539 02:42:ac:11:00:05 > 02:42:ac:11:00:03, ethertype IPv4 (0x0800), length 98: 172.17.0.5 > 172.17.0.3: ICMP echo reply, id 1, seq 194, length 64
	0x0000:  4500 0054 4613 0000 4001 dc6b ac11 0005  E..TF...@..k....
	0x0010:  ac11 0003 0000 925d 0001 00c2 23f2 4c65  .......]....#.Le
	0x0020:  0000 0000 3bb5 0200 0000 0000 1011 1213  ....;...........
	0x0030:  1415 1617 1819 1a1b 1c1d 1e1f 2021 2223  .............!"#
	0x0040:  2425 2627 2829 2a2b 2c2d 2e2f 3031 3233  $%&'()*+,-./0123
	0x0050:  3435 3637                                4567
2023-11-09 14:52:20.201530 02:42:ac:11:00:03 > 02:42:ac:11:00:05, ethertype IPv4 (0x0800), length 98: 172.17.0.3 > 172.17.0.5: ICMP echo request, id 1, seq 195, length 64
	0x0000:  4500 0054 c07a 4000 4001 2204 ac11 0003  E..T.z@.@.".....
	0x0010:  ac11 0005 0800 befe 0001 00c3 24f2 4c65  ............$.Le
	0x0020:  0000 0000 0513 0300 0000 0000 1011 1213  ................
	0x0030:  1415 1617 1819 1a1b 1c1d 1e1f 2021 2223  .............!"#
	0x0040:  2425 2627 2829 2a2b 2c2d 2e2f 3031 3233  $%&'()*+,-./0123
	0x0050:  3435 3637                                4567
2023-11-09 14:52:20.201550 02:42:ac:11:00:05 > 02:42:ac:11:00:03, ethertype IPv4 (0x0800), length 98: 172.17.0.5 > 172.17.0.3: ICMP echo reply, id 1, seq 195, length 64
	0x0000:  4500 0054 46e4 0000 4001 db9a ac11 0005  E..TF...@.......
	0x0010:  ac11 0003 0000 c6fe 0001 00c3 24f2 4c65  ............$.Le
	0x0020:  0000 0000 0513 0300 0000 0000 1011 1213  ................
	0x0030:  1415 1617 1819 1a1b 1c1d 1e1f 2021 2223  .............!"#
	0x0040:  2425 2627 2829 2a2b 2c2d 2e2f 3031 3233  $%&'()*+,-./0123
	0x0050:  3435 3637                                4567
2023-11-09 14:52:21.229487 02:42:ac:11:00:03 > 02:42:ac:11:00:05, ethertype IPv4 (0x0800), length 98: 172.17.0.3 > 172.17.0.5: ICMP echo request, id 1, seq 196, length 64
	0x0000:  4500 0054 c0f5 4000 4001 2189 ac11 0003  E..T..@.@.!.....
	0x0010:  ac11 0005 0800 8590 0001 00c4 25f2 4c65  ............%.Le
	0x0020:  0000 0000 3d80 0300 0000 0000 1011 1213  ....=...........
	0x0030:  1415 1617 1819 1a1b 1c1d 1e1f 2021 2223  .............!"#
	0x0040:  2425 2627 2829 2a2b 2c2d 2e2f 3031 3233  $%&'()*+,-./0123
	0x0050:  3435 3637                                4567
2023-11-09 14:52:21.229508 02:42:ac:11:00:05 > 02:42:ac:11:00:03, ethertype IPv4 (0x0800), length 98: 172.17.0.5 > 172.17.0.3: ICMP echo reply, id 1, seq 196, length 64
	0x0000:  4500 0054 475c 0000 4001 db22 ac11 0005  E..TG\..@.."....
	0x0010:  ac11 0003 0000 8d90 0001 00c4 25f2 4c65  ............%.Le
	0x0020:  0000 0000 3d80 0300 0000 0000 1011 1213  ....=...........
	0x0030:  1415 1617 1819 1a1b 1c1d 1e1f 2021 2223  .............!"#
	0x0040:  2425 2627 2829 2a2b 2c2d 2e2f 3031 3233  $%&'()*+,-./0123
	0x0050:  3435 3637                                4567
2023-11-09 14:52:22.249534 02:42:ac:11:00:03 > 02:42:ac:11:00:05, ethertype IPv4 (0x0800), length 98: 172.17.0.3 > 172.17.0.5: ICMP echo request, id 1, seq 197, length 64
	0x0000:  4500 0054 c1e1 4000 4001 209d ac11 0003  E..T..@.@.......
	0x0010:  ac11 0005 0800 3941 0001 00c5 26f2 4c65  ......9A....&.Le
	0x0020:  0000 0000 88ce 0300 0000 0000 1011 1213  ................
	0x0030:  1415 1617 1819 1a1b 1c1d 1e1f 2021 2223  .............!"#
	0x0040:  2425 2627 2829 2a2b 2c2d 2e2f 3031 3233  $%&'()*+,-./0123
	0x0050:  3435 3637                                4567
2023-11-09 14:52:22.249554 02:42:ac:11:00:05 > 02:42:ac:11:00:03, ethertype IPv4 (0x0800), length 98: 172.17.0.5 > 172.17.0.3: ICMP echo reply, id 1, seq 197, length 64
	0x0000:  4500 0054 47df 0000 4001 da9f ac11 0005  E..TG...@.......
	0x0010:  ac11 0003 0000 4141 0001 00c5 26f2 4c65  ......AA....&.Le
	0x0020:  0000 0000 88ce 0300 0000 0000 1011 1213  ................
	0x0030:  1415 1617 1819 1a1b 1c1d 1e1f 2021 2223  .............!"#
	0x0040:  2425 2627 2829 2a2b 2c2d 2e2f 3031 3233  $%&'()*+,-./0123
	0x0050:  3435 3637                                4567
2023-11-09 14:52:23.273514 02:42:ac:11:00:03 > 02:42:ac:11:00:05, ethertype IPv4 (0x0800), length 98: 172.17.0.3 > 172.17.0.5: ICMP echo request, id 1, seq 198, length 64
	0x0000:  4500 0054 c28b 4000 4001 1ff3 ac11 0003  E..T..@.@.......
	0x0010:  ac11 0005 0800 8ae2 0001 00c6 27f2 4c65  ............'.Le
	0x0020:  0000 0000 352c 0400 0000 0000 1011 1213  ....5,..........
	0x0030:  1415 1617 1819 1a1b 1c1d 1e1f 2021 2223  .............!"#
	0x0040:  2425 2627 2829 2a2b 2c2d 2e2f 3031 3233  $%&'()*+,-./0123
	0x0050:  3435 3637                                4567
2023-11-09 14:52:23.273535 02:42:ac:11:00:05 > 02:42:ac:11:00:03, ethertype IPv4 (0x0800), length 98: 172.17.0.5 > 172.17.0.3: ICMP echo reply, id 1, seq 198, length 64
	0x0000:  4500 0054 4851 0000 4001 da2d ac11 0005  E..THQ..@..-....
	0x0010:  ac11 0003 0000 92e2 0001 00c6 27f2 4c65  ............'.Le
	0x0020:  0000 0000 352c 0400 0000 0000 1011 1213  ....5,..........
	0x0030:  1415 1617 1819 1a1b 1c1d 1e1f 2021 2223  .............!"#
	0x0040:  2425 2627 2829 2a2b 2c2d 2e2f 3031 3233  $%&'()*+,-./0123
	0x0050:  3435 3637                                4567
2023-11-09 14:52:24.297532 02:42:ac:11:00:03 > 02:42:ac:11:00:05, ethertype IPv4 (0x0800), length 98: 172.17.0.3 > 172.17.0.5: ICMP echo request, id 1, seq 199, length 64
	0x0000:  4500 0054 c381 4000 4001 1efd ac11 0003  E..T..@.@.......
	0x0010:  ac11 0005 0800 b783 0001 00c7 28f2 4c65  ............(.Le
	0x0020:  0000 0000 078a 0400 0000 0000 1011 1213  ................
	0x0030:  1415 1617 1819 1a1b 1c1d 1e1f 2021 2223  .............!"#
	0x0040:  2425 2627 2829 2a2b 2c2d 2e2f 3031 3233  $%&'()*+,-./0123
	0x0050:  3435 3637                                4567
2023-11-09 14:52:24.297553 02:42:ac:11:00:05 > 02:42:ac:11:00:03, ethertype IPv4 (0x0800), length 98: 172.17.0.5 > 172.17.0.3: ICMP echo reply, id 1, seq 199, length 64
	0x0000:  4500 0054 4940 0000 4001 d93e ac11 0005  E..TI@..@..>....
	0x0010:  ac11 0003 0000 bf83 0001 00c7 28f2 4c65  ............(.Le
	0x0020:  0000 0000 078a 0400 0000 0000 1011 1213  ................
	0x0030:  1415 1617 1819 1a1b 1c1d 1e1f 2021 2223  .............!"#
	0x0040:  2425 2627 2829 2a2b 2c2d 2e2f 3031 3233  $%&'()*+,-./0123
	0x0050:  3435 3637                                4567
2023-11-09 14:52:25.321518 02:42:ac:11:00:03 > 02:42:ac:11:00:05, ethertype IPv4 (0x0800), length 98: 172.17.0.3 > 172.17.0.5: ICMP echo request, id 1, seq 200, length 64
	0x0000:  4500 0054 c3e3 4000 4001 1e9b ac11 0003  E..T..@.@.......
	0x0010:  ac11 0005 0800 0725 0001 00c8 29f2 4c65  .......%....).Le
	0x0020:  0000 0000 b6e7 0400 0000 0000 1011 1213  ................
	0x0030:  1415 1617 1819 1a1b 1c1d 1e1f 2021 2223  .............!"#
	0x0040:  2425 2627 2829 2a2b 2c2d 2e2f 3031 3233  $%&'()*+,-./0123
	0x0050:  3435 3637                                4567
2023-11-09 14:52:25.321538 02:42:ac:11:00:05 > 02:42:ac:11:00:03, ethertype IPv4 (0x0800), length 98: 172.17.0.5 > 172.17.0.3: ICMP echo reply, id 1, seq 200, length 64
	0x0000:  4500 0054 4a33 0000 4001 d84b ac11 0005  E..TJ3..@..K....
	0x0010:  ac11 0003 0000 0f25 0001 00c8 29f2 4c65  .......%....).Le
	0x0020:  0000 0000 b6e7 0400 0000 0000 1011 1213  ................
	0x0030:  1415 1617 1819 1a1b 1c1d 1e1f 2021 2223  .............!"#
	0x0040:  2425 2627 2829 2a2b 2c2d 2e2f 3031 3233  $%&'()*+,-./0123
	0x0050:  3435 3637                                4567
2023-11-09 14:52:26.345525 02:42:ac:11:00:03 > 02:42:ac:11:00:05, ethertype IPv4 (0x0800), length 98: 172.17.0.3 > 172.17.0.5: ICMP echo request, id 1, seq 201, length 64
	0x0000:  4500 0054 c481 4000 4001 1dfd ac11 0003  E..T..@.@.......
	0x0010:  ac11 0005 0800 3bc6 0001 00c9 2af2 4c65  ......;.....*.Le
	0x0020:  0000 0000 8045 0500 0000 0000 1011 1213  .....E..........
	0x0030:  1415 1617 1819 1a1b 1c1d 1e1f 2021 2223  .............!"#
	0x0040:  2425 2627 2829 2a2b 2c2d 2e2f 3031 3233  $%&'()*+,-./0123
	0x0050:  3435 3637                                4567
2023-11-09 14:52:26.345545 02:42:ac:11:00:05 > 02:42:ac:11:00:03, ethertype IPv4 (0x0800), length 98: 172.17.0.5 > 172.17.0.3: ICMP echo reply, id 1, seq 201, length 64
	0x0000:  4500 0054 4a99 0000 4001 d7e5 ac11 0005  E..TJ...@.......
	0x0010:  ac11 0003 0000 43c6 0001 00c9 2af2 4c65  ......C.....*.Le
	0x0020:  0000 0000 8045 0500 0000 0000 1011 1213  .....E..........
	0x0030:  1415 1617 1819 1a1b 1c1d 1e1f 2021 2223  .............!"#
	0x0040:  2425 2627 2829 2a2b 2c2d 2e2f 3031 3233  $%&'()*+,-./0123
	0x0050:  3435 3637                                4567
2023-11-09 14:52:27.369482 02:42:ac:11:00:03 > 02:42:ac:11:00:05, ethertype IPv4 (0x0800), length 98: 172.17.0.3 > 172.17.0.5: ICMP echo request, id 1, seq 202, length 64
	0x0000:  4500 0054 c50a 4000 4001 1d74 ac11 0003  E..T..@.@..t....
	0x0010:  ac11 0005 0800 a467 0001 00ca 2bf2 4c65  .......g....+.Le
	0x0020:  0000 0000 16a3 0500 0000 0000 1011 1213  ................
	0x0030:  1415 1617 1819 1a1b 1c1d 1e1f 2021 2223  .............!"#
	0x0040:  2425 2627 2829 2a2b 2c2d 2e2f 3031 3233  $%&'()*+,-./0123
	0x0050:  3435 3637                                4567
2023-11-09 14:52:27.369502 02:42:ac:11:00:05 > 02:42:ac:11:00:03, ethertype IPv4 (0x0800), length 98: 172.17.0.5 > 172.17.0.3: ICMP echo reply, id 1, seq 202, length 64
	0x0000:  4500 0054 4b61 0000 4001 d71d ac11 0005  E..TKa..@.......
	0x0010:  ac11 0003 0000 ac67 0001 00ca 2bf2 4c65  .......g....+.Le
	0x0020:  0000 0000 16a3 0500 0000 0000 1011 1213  ................
	0x0030:  1415 1617 1819 1a1b 1c1d 1e1f 2021 2223  .............!"#
	0x0040:  2425 2627 2829 2a2b 2c2d 2e2f 3031 3233  $%&'()*+,-./0123
	0x0050:  3435 3637                                4567
2023-11-09 14:52:28.393541 02:42:ac:11:00:03 > 02:42:ac:11:00:05, ethertype IPv4 (0x0800), length 98: 172.17.0.3 > 172.17.0.5: ICMP echo request, id 1, seq 203, length 64
	0x0000:  4500 0054 c57b 4000 4001 1d03 ac11 0003  E..T.{@.@.......
	0x0010:  ac11 0005 0800 a808 0001 00cb 2cf2 4c65  ............,.Le
	0x0020:  0000 0000 1101 0600 0000 0000 1011 1213  ................
	0x0030:  1415 1617 1819 1a1b 1c1d 1e1f 2021 2223  .............!"#
	0x0040:  2425 2627 2829 2a2b 2c2d 2e2f 3031 3233  $%&'()*+,-./0123
	0x0050:  3435 3637                                4567
2023-11-09 14:52:28.393562 02:42:ac:11:00:05 > 02:42:ac:11:00:03, ethertype IPv4 (0x0800), length 98: 172.17.0.5 > 172.17.0.3: ICMP echo reply, id 1, seq 203, length 64
	0x0000:  4500 0054 4bcd 0000 4001 d6b1 ac11 0005  E..TK...@.......
	0x0010:  ac11 0003 0000 b008 0001 00cb 2cf2 4c65  ............,.Le
	0x0020:  0000 0000 1101 0600 0000 0000 1011 1213  ................
	0x0030:  1415 1617 1819 1a1b 1c1d 1e1f 2021 2223  .............!"#
	0x0040:  2425 2627 2829 2a2b 2c2d 2e2f 3031 3233  $%&'()*+,-./0123
	0x0050:  3435 3637                                4567
2023-11-09 14:52:29.417415 02:42:ac:11:00:03 > 02:42:ac:11:00:05, ethertype IPv4 (0x0800), length 98: 172.17.0.3 > 172.17.0.5: ICMP echo request, id 1, seq 204, length 64
	0x0000:  4500 0054 c64f 4000 4001 1c2f ac11 0003  E..T.O@.@../....
	0x0010:  ac11 0005 0800 62aa 0001 00cc 2df2 4c65  ......b.....-.Le
	0x0020:  0000 0000 555e 0600 0000 0000 1011 1213  ....U^..........
	0x0030:  1415 1617 1819 1a1b 1c1d 1e1f 2021 2223  .............!"#
	0x0040:  2425 2627 2829 2a2b 2c2d 2e2f 3031 3233  $%&'()*+,-./0123
	0x0050:  3435 3637                                4567
2023-11-09 14:52:29.417434 02:42:ac:11:00:05 > 02:42:ac:11:00:03, ethertype IPv4 (0x0800), length 98: 172.17.0.5 > 172.17.0.3: ICMP echo reply, id 1, seq 204, length 64
	0x0000:  4500 0054 4cc8 0000 4001 d5b6 ac11 0005  E..TL...@.......
	0x0010:  ac11 0003 0000 6aaa 0001 00cc 2df2 4c65  ......j.....-.Le
	0x0020:  0000 0000 555e 0600 0000 0000 1011 1213  ....U^..........
	0x0030:  1415 1617 1819 1a1b 1c1d 1e1f 2021 2223  .............!"#
	0x0040:  2425 2627 2829 2a2b 2c2d 2e2f 3031 3233  $%&'()*+,-./0123
	0x0050:  3435 3637                                4567
2023-11-09 14:52:30.441474 02:42:ac:11:00:03 > 02:42:ac:11:00:05, ethertype IPv4 (0x0800), length 98: 172.17.0.3 > 172.17.0.5: ICMP echo request, id 1, seq 205, length 64
	0x0000:  4500 0054 c6ad 4000 4001 1bd1 ac11 0003  E..T..@.@.......
	0x0010:  ac11 0005 0800 674b 0001 00cd 2ef2 4c65  ......gK......Le
	0x0020:  0000 0000 4fbc 0600 0000 0000 1011 1213  ....O...........
	0x0030:  1415 1617 1819 1a1b 1c1d 1e1f 2021 2223  .............!"#
	0x0040:  2425 2627 2829 2a2b 2c2d 2e2f 3031 3233  $%&'()*+,-./0123
	0x0050:  3435 3637                                4567
2023-11-09 14:52:30.441495 02:42:ac:11:00:05 > 02:42:ac:11:00:03, ethertype IPv4 (0x0800), length 98: 172.17.0.5 > 172.17.0.3: ICMP echo reply, id 1, seq 205, length 64
	0x0000:  4500 0054 4d4d 0000 4001 d531 ac11 0005  E..TMM..@..1....
	0x0010:  ac11 0003 0000 6f4b 0001 00cd 2ef2 4c65  ......oK......Le
	0x0020:  0000 0000 4fbc 0600 0000 0000 1011 1213  ....O...........
	0x0030:  1415 1617 1819 1a1b 1c1d 1e1f 2021 2223  .............!"#
	0x0040:  2425 2627 2829 2a2b 2c2d 2e2f 3031 3233  $%&'()*+,-./0123
	0x0050:  3435 3637                                4567
2023-11-09 14:52:31.465523 02:42:ac:11:00:03 > 02:42:ac:11:00:05, ethertype IPv4 (0x0800), length 98: 172.17.0.3 > 172.17.0.5: ICMP echo request, id 1, seq 206, length 64
	0x0000:  4500 0054 c6f0 4000 4001 1b8e ac11 0003  E..T..@.@.......
	0x0010:  ac11 0005 0800 76ec 0001 00ce 2ff2 4c65  ......v...../.Le
	0x0020:  0000 0000 3e1a 0700 0000 0000 1011 1213  ....>...........
	0x0030:  1415 1617 1819 1a1b 1c1d 1e1f 2021 2223  .............!"#
	0x0040:  2425 2627 2829 2a2b 2c2d 2e2f 3031 3233  $%&'()*+,-./0123
	0x0050:  3435 3637                                4567
2023-11-09 14:52:31.465544 02:42:ac:11:00:05 > 02:42:ac:11:00:03, ethertype IPv4 (0x0800), length 98: 172.17.0.5 > 172.17.0.3: ICMP echo reply, id 1, seq 206, length 64
	0x0000:  4500 0054 4e01 0000 4001 d47d ac11 0005  E..TN...@..}....
	0x0010:  ac11 0003 0000 7eec 0001 00ce 2ff2 4c65  ......~...../.Le
	0x0020:  0000 0000 3e1a 0700 0000 0000 1011 1213  ....>...........
	0x0030:  1415 1617 1819 1a1b 1c1d 1e1f 2021 2223  .............!"#
	0x0040:  2425 2627 2829 2a2b 2c2d 2e2f 3031 3233  $%&'()*+,-./0123
	0x0050:  3435 3637                                4567
2023-11-09 14:52:32.489523 02:42:ac:11:00:03 > 02:42:ac:11:00:05, ethertype IPv4 (0x0800), length 98: 172.17.0.3 > 172.17.0.5: ICMP echo request, id 1, seq 207, length 64
	0x0000:  4500 0054 c7a5 4000 4001 1ad9 ac11 0003  E..T..@.@.......
	0x0010:  ac11 0005 0800 b58d 0001 00cf 30f2 4c65  ............0.Le
	0x0020:  0000 0000 fe77 0700 0000 0000 1011 1213  .....w..........
	0x0030:  1415 1617 1819 1a1b 1c1d 1e1f 2021 2223  .............!"#
	0x0040:  2425 2627 2829 2a2b 2c2d 2e2f 3031 3233  $%&'()*+,-./0123
	0x0050:  3435 3637                                4567
2023-11-09 14:52:32.489544 02:42:ac:11:00:05 > 02:42:ac:11:00:03, ethertype IPv4 (0x0800), length 98: 172.17.0.5 > 172.17.0.3: ICMP echo reply, id 1, seq 207, length 64
	0x0000:  4500 0054 4e6a 0000 4001 d414 ac11 0005  E..TNj..@.......
	0x0010:  ac11 0003 0000 bd8d 0001 00cf 30f2 4c65  ............0.Le
	0x0020:  0000 0000 fe77 0700 0000 0000 1011 1213  .....w..........
	0x0030:  1415 1617 1819 1a1b 1c1d 1e1f 2021 2223  .............!"#
	0x0040:  2425 2627 2829 2a2b 2c2d 2e2f 3031 3233  $%&'()*+,-./0123
	0x0050:  3435 3637                                4567
2023-11-09 14:52:33.513498 02:42:ac:11:00:03 > 02:42:ac:11:00:05, ethertype IPv4 (0x0800), length 98: 172.17.0.3 > 172.17.0.5: ICMP echo request, id 1, seq 208, length 64
	0x0000:  4500 0054 c7e1 4000 4001 1a9d ac11 0003  E..T..@.@.......
	0x0010:  ac11 0005 0800 0d2f 0001 00d0 31f2 4c65  ......./....1.Le
	0x0020:  0000 0000 a5d5 0700 0000 0000 1011 1213  ................
	0x0030:  1415 1617 1819 1a1b 1c1d 1e1f 2021 2223  .............!"#
	0x0040:  2425 2627 2829 2a2b 2c2d 2e2f 3031 3233  $%&'()*+,-./0123
	0x0050:  3435 3637                                4567
2023-11-09 14:52:33.513518 02:42:ac:11:00:05 > 02:42:ac:11:00:03, ethertype IPv4 (0x0800), length 98: 172.17.0.5 > 172.17.0.3: ICMP echo reply, id 1, seq 208, length 64
	0x0000:  4500 0054 4e9d 0000 4001 d3e1 ac11 0005  E..TN...@.......
	0x0010:  ac11 0003 0000 152f 0001 00d0 31f2 4c65  ......./....1.Le
	0x0020:  0000 0000 a5d5 0700 0000 0000 1011 1213  ................
	0x0030:  1415 1617 1819 1a1b 1c1d 1e1f 2021 2223  .............!"#
	0x0040:  2425 2627 2829 2a2b 2c2d 2e2f 3031 3233  $%&'()*+,-./0123
	0x0050:  3435 3637                                4567
2023-11-09 14:52:34.537536 02:42:ac:11:00:03 > 02:42:ac:11:00:05, ethertype IPv4 (0x0800), length 98: 172.17.0.3 > 172.17.0.5: ICMP echo request, id 1, seq 209, length 64
	0x0000:  4500 0054 c8cb 4000 4001 19b3 ac11 0003  E..T..@.@.......
	0x0010:  ac11 0005 0800 25d0 0001 00d1 32f2 4c65  ......%.....2.Le
	0x0020:  0000 0000 8b33 0800 0000 0000 1011 1213  .....3..........
	0x0030:  1415 1617 1819 1a1b 1c1d 1e1f 2021 2223  .............!"#
	0x0040:  2425 2627 2829 2a2b 2c2d 2e2f 3031 3233  $%&'()*+,-./0123
	0x0050:  3435 3637                                4567
2023-11-09 14:52:34.537557 02:42:ac:11:00:05 > 02:42:ac:11:00:03, ethertype IPv4 (0x0800), length 98: 172.17.0.5 > 172.17.0.3: ICMP echo reply, id 1, seq 209, length 64
	0x0000:  4500 0054 4eed 0000 4001 d391 ac11 0005  E..TN...@.......
	0x0010:  ac11 0003 0000 2dd0 0001 00d1 32f2 4c65  ......-.....2.Le
	0x0020:  0000 0000 8b33 0800 0000 0000 1011 1213  .....3..........
	0x0030:  1415 1617 1819 1a1b 1c1d 1e1f 2021 2223  .............!"#
	0x0040:  2425 2627 2829 2a2b 2c2d 2e2f 3031 3233  $%&'()*+,-./0123
	0x0050:  3435 3637                                4567
2023-11-09 14:52:35.561527 02:42:ac:11:00:03 > 02:42:ac:11:00:05, ethertype IPv4 (0x0800), length 98: 172.17.0.3 > 172.17.0.5: ICMP echo request, id 1, seq 210, length 64
	0x0000:  4500 0054 c9b2 4000 4001 18cc ac11 0003  E..T..@.@.......
	0x0010:  ac11 0005 0800 6e71 0001 00d2 33f2 4c65  ......nq....3.Le
	0x0020:  0000 0000 4191 0800 0000 0000 1011 1213  ....A...........
	0x0030:  1415 1617 1819 1a1b 1c1d 1e1f 2021 2223  .............!"#
	0x0040:  2425 2627 2829 2a2b 2c2d 2e2f 3031 3233  $%&'()*+,-./0123
	0x0050:  3435 3637                                4567
2023-11-09 14:52:35.561548 02:42:ac:11:00:05 > 02:42:ac:11:00:03, ethertype IPv4 (0x0800), length 98: 172.17.0.5 > 172.17.0.3: ICMP echo reply, id 1, seq 210, length 64
	0x0000:  4500 0054 4f4a 0000 4001 d334 ac11 0005  E..TOJ..@..4....
	0x0010:  ac11 0003 0000 7671 0001 00d2 33f2 4c65  ......vq....3.Le
	0x0020:  0000 0000 4191 0800 0000 0000 1011 1213  ....A...........
	0x0030:  1415 1617 1819 1a1b 1c1d 1e1f 2021 2223  .............!"#
	0x0040:  2425 2627 2829 2a2b 2c2d 2e2f 3031 3233  $%&'()*+,-./0123
	0x0050:  3435 3637                                4567
2023-11-09 14:52:35.657432 02:42:ac:11:00:05 > 02:42:ac:11:00:03, ethertype ARP (0x0806), length 42: Request who-has 172.17.0.3 tell 172.17.0.5, length 28
	0x0000:  0001 0800 0604 0001 0242 ac11 0005 ac11  .........B......
	0x0010:  0005 0000 0000 0000 ac11 0003            ............
2023-11-09 14:52:35.657511 02:42:ac:11:00:03 > 02:42:ac:11:00:05, ethertype ARP (0x0806), length 42: Reply 172.17.0.3 is-at 02:42:ac:11:00:03, length 28
	0x0000:  0001 0800 0604 0002 0242 ac11 0003 ac11  .........B......
	0x0010:  0003 0242 ac11 0005 ac11 0005            ...B........
2023-11-09 14:52:36.585526 02:42:ac:11:00:03 > 02:42:ac:11:00:05, ethertype IPv4 (0x0800), length 98: 172.17.0.3 > 172.17.0.5: ICMP echo request, id 1, seq 211, length 64
	0x0000:  4500 0054 ca9e 4000 4001 17e0 ac11 0003  E..T..@.@.......
	0x0010:  ac11 0005 0800 b012 0001 00d3 34f2 4c65  ............4.Le
	0x0020:  0000 0000 feee 0800 0000 0000 1011 1213  ................
	0x0030:  1415 1617 1819 1a1b 1c1d 1e1f 2021 2223  .............!"#
	0x0040:  2425 2627 2829 2a2b 2c2d 2e2f 3031 3233  $%&'()*+,-./0123
	0x0050:  3435 3637                                4567
2023-11-09 14:52:36.585547 02:42:ac:11:00:05 > 02:42:ac:11:00:03, ethertype IPv4 (0x0800), length 98: 172.17.0.5 > 172.17.0.3: ICMP echo reply, id 1, seq 211, length 64
	0x0000:  4500 0054 4f7c 0000 4001 d302 ac11 0005  E..TO|..@.......
	0x0010:  ac11 0003 0000 b812 0001 00d3 34f2 4c65  ............4.Le
	0x0020:  0000 0000 feee 0800 0000 0000 1011 1213  ................
	0x0030:  1415 1617 1819 1a1b 1c1d 1e1f 2021 2223  .............!"#
	0x0040:  2425 2627 2829 2a2b 2c2d 2e2f 3031 3233  $%&'()*+,-./0123
	0x0050:  3435 3637                                4567
2023-11-09 14:52:37.609511 02:42:ac:11:00:03 > 02:42:ac:11:00:05, ethertype IPv4 (0x0800), length 98: 172.17.0.3 > 172.17.0.5: ICMP echo request, id 1, seq 212, length 64
	0x0000:  4500 0054 cb06 4000 4001 1778 ac11 0003  E..T..@.@..x....
	0x0010:  ac11 0005 0800 f9b3 0001 00d4 35f2 4c65  ............5.Le
	0x0020:  0000 0000 b34c 0900 0000 0000 1011 1213  .....L..........
	0x0030:  1415 1617 1819 1a1b 1c1d 1e1f 2021 2223  .............!"#
	0x0040:  2425 2627 2829 2a2b 2c2d 2e2f 3031 3233  $%&'()*+,-./0123
	0x0050:  3435 3637                                4567
2023-11-09 14:52:37.609531 02:42:ac:11:00:05 > 02:42:ac:11:00:03, ethertype IPv4 (0x0800), length 98: 172.17.0.5 > 172.17.0.3: ICMP echo reply, id 1, seq 212, length 64
	0x0000:  4500 0054 4f8c 0000 4001 d2f2 ac11 0005  E..TO...@.......
	0x0010:  ac11 0003 0000 01b4 0001 00d4 35f2 4c65  ............5.Le
	0x0020:  0000 0000 b34c 0900 0000 0000 1011 1213  .....L..........
	0x0030:  1415 1617 1819 1a1b 1c1d 1e1f 2021 2223  .............!"#
	0x0040:  2425 2627 2829 2a2b 2c2d 2e2f 3031 3233  $%&'()*+,-./0123
	0x0050:  3435 3637                                4567
2023-11-09 14:52:38.633526 02:42:ac:11:00:03 > 02:42:ac:11:00:05, ethertype IPv4 (0x0800), length 98: 172.17.0.3 > 172.17.0.5: ICMP echo request, id 1, seq 213, length 64
	0x0000:  4500 0054 cbf7 4000 4001 1687 ac11 0003  E..T..@.@.......
	0x0010:  ac11 0005 0800 2a55 0001 00d5 36f2 4c65  ......*U....6.Le
	0x0020:  0000 0000 81aa 0900 0000 0000 1011 1213  ................
	0x0030:  1415 1617 1819 1a1b 1c1d 1e1f 2021 2223  .............!"#
	0x0040:  2425 2627 2829 2a2b 2c2d 2e2f 3031 3233  $%&'()*+,-./0123
	0x0050:  3435 3637                                4567
2023-11-09 14:52:38.633547 02:42:ac:11:00:05 > 02:42:ac:11:00:03, ethertype IPv4 (0x0800), length 98: 172.17.0.5 > 172.17.0.3: ICMP echo reply, id 1, seq 213, length 64
	0x0000:  4500 0054 502e 0000 4001 d250 ac11 0005  E..TP...@..P....
	0x0010:  ac11 0003 0000 3255 0001 00d5 36f2 4c65  ......2U....6.Le
	0x0020:  0000 0000 81aa 0900 0000 0000 1011 1213  ................
	0x0030:  1415 1617 1819 1a1b 1c1d 1e1f 2021 2223  .............!"#
	0x0040:  2425 2627 2829 2a2b 2c2d 2e2f 3031 3233  $%&'()*+,-./0123
	0x0050:  3435 3637                                4567
2023-11-09 14:52:39.657514 02:42:ac:11:00:03 > 02:42:ac:11:00:05, ethertype IPv4 (0x0800), length 98: 172.17.0.3 > 172.17.0.5: ICMP echo request, id 1, seq 214, length 64
	0x0000:  4500 0054 ccc1 4000 4001 15bd ac11 0003  E..T..@.@.......
	0x0010:  ac11 0005 0800 74f6 0001 00d6 37f2 4c65  ......t.....7.Le
	0x0020:  0000 0000 3508 0a00 0000 0000 1011 1213  ....5...........
	0x0030:  1415 1617 1819 1a1b 1c1d 1e1f 2021 2223  .............!"#
	0x0040:  2425 2627 2829 2a2b 2c2d 2e2f 3031 3233  $%&'()*+,-./0123
	0x0050:  3435 3637                                4567
2023-11-09 14:52:39.657535 02:42:ac:11:00:05 > 02:42:ac:11:00:03, ethertype IPv4 (0x0800), length 98: 172.17.0.5 > 172.17.0.3: ICMP echo reply, id 1, seq 214, length 64
	0x0000:  4500 0054 5110 0000 4001 d16e ac11 0005  E..TQ...@..n....
	0x0010:  ac11 0003 0000 7cf6 0001 00d6 37f2 4c65  ......|.....7.Le
	0x0020:  0000 0000 3508 0a00 0000 0000 1011 1213  ....5...........
	0x0030:  1415 1617 1819 1a1b 1c1d 1e1f 2021 2223  .............!"#
	0x0040:  2425 2627 2829 2a2b 2c2d 2e2f 3031 3233  $%&'()*+,-./0123
	0x0050:  3435 3637                                4567
2023-11-09 14:52:40.681525 02:42:ac:11:00:03 > 02:42:ac:11:00:05, ethertype IPv4 (0x0800), length 98: 172.17.0.3 > 172.17.0.5: ICMP echo request, id 1, seq 215, length 64
	0x0000:  4500 0054 cd6b 4000 4001 1513 ac11 0003  E..T.k@.@.......
	0x0010:  ac11 0005 0800 a997 0001 00d7 38f2 4c65  ............8.Le
	0x0020:  0000 0000 ff65 0a00 0000 0000 1011 1213  .....e..........
